:020000040000FA
:060000000200F9022CE4ED
:03002B0002348C10
:03005300022D5A21
:10008300022C47E5C754F84401F5C7790122000063
:100093000080FB120086B900030200E3E4792178B3
:1000A30008B800028004F709D8FCE490028178FCC8
:1000B30079078002F0A3D8FCD9FA7A7C7B099001F6
:1000C3002978AE790A8015E493A3AD82AE838A8240
:1000D3008B83F0A3AA82AB838D828E83D8E9D9E781
:1000E3007582477583BD740312010B758291758305
:1000F30000740012010B75D00075813F751881756E
:100103001902759F00020096C09FF59FE473D09F6C
:1001130022D083D082C09FE493C0E0740193C0E0F7
:10012300740293F59F22FF00000078002800280046
:10013300283075A000A000A000A00000080008E07F
:1001430001F000100010001000100010001000500B
:10015300005000500010001000D007000000000005
:10016300000F0030750700100001000000FFCE0CE7
:10017300EC0CD40CFF02020A0A025000A00000009B
:10018300E8030294820100008F8202BA8201000018
:10019300CB0902A082010000B00202BA8201000072
:1001A300CC0902BE81010000C50202BA820100002F
:1001B300CD09029282030000C70202BA8201000045
:1001C300CE0902FE82030000C80202BA82010000C7
:1001D300CF09029682010000D009FF0100FF20022F
:1001E30094820100008C8202BA82010000340A0268
:1001F3009882000000000002A2820300001503247D
:10020300142414241424142414241424142414242B
:10021300142414241424142414481760174217FFB9
:100223000112640201029482010000868202BA82F2
:10023300010000770A02BC82010000780A02A28250
:10024300030000B707029A82010000790A02020242
:10025300020202020202010D000000100102948258
:10026300010000918102BA82010000A30A02B68252
:10027300010000BD0702BA82010000A40A02B48291
:100283000100007C8102BA82010000A50A02B28249
:100293000100006E8102BA82010000A60A02B08248
:1002A300010000FA8002BA82010000A70A02AE82AE
:1002B3000100000C8102BA82010000A80A02AC828C
:1002C300010000E88002BA82010000A90A02AA82A2
:1002D3000100001E8102BA82010000AA0A02A8825C
:1002E300010000608102BA82010000AB0A02A6820B
:1002F300010000AC0A01E803053F10FF000130755F
:1003030003020106000000000000000000000000DE
:1003130000000000000000000000000000000000DA
:10032300FFFF0600800CE803140953656E736F72B8
:10033300424C455065726970686572616C020A00CF
:1003430002010605028D2D0F184F32205769726581
:100353006C6573732053656E736F72202D20506527
:10036300726970686572616C00F81B000010536558
:100373006E736F7220436F6D6D616E6400020020B7
:10038300030044656E6F6D696E61746F7220443053
:1003930020746F20636F6E76657274204D65617390
:1003A3007572656D656E740002FA0000004E756D1E
:1003B300657261746F72204E3020746F20636F6EAC
:1003C30076657274204D6561737572656D656E74C3
:1003D3000002320000004D656469616E2056616C55
:1003E3007565207573656420696E20737562747218
:1003F300616374696F6E20583020746F20636F6E71
:1004030076657274204D6561737572656D656E7482
:10041300000260AE0A0044656E6F6D696E61746FB1
:100423007220443120746F20636F6E76657274207E
:100433004D6561737572656D656E7400026E7553FB
:100443004F434B455420506C6174666F726D0002CC
:10045300436172626F6E204D6F6E6F7869646500E1
:100463000254696D6520696E207365636F6E6473F2
:100473000002434F202870706D2900029A014D69D4
:100483006E696D756D2076616C7565206F6E207475
:100493006865205920417869732E20416C6C206C6B
:1004A3006F7765722076616C756573206172652064
:1004B300636C69707065640002D0074D6178696D83
:1004C300756D2076616C7565206F6E20746865208C
:1004D3005920417869732E20416C6C2067726561E5
:1004E3007465722076616C75657320617265206333
:1004F3006C69707065640002F40156616C75652067
:100503006F662074686520626F756E64617279200E
:100513006265747765656E2074686520746F7020FA
:10052300616E64206D6964646C6520636F6C6F72C7
:100533002062616E6473206F6E2067726170680061
:1005430002BD0156616C7565206F66207468652075
:10055300626F756E64617279206265747765656E2A
:1005630020746865206D6964646C6520616E642025
:100573006C6F7720636F6C6F722062616E6473209F
:100583006F6E2067726170680002000AFF00566197
:100593006C7565206F662074686520636F6C6F727D
:1005A30020666F722074686520746F7020636F6CAF
:1005B3006F722062616E64206F6E20677261706873
:1005C300000200FAFF0056616C7565206F662074A7
:1005D300686520636F6C6F7220666F722074686544
:1005E300206D6964646C6520636F6C6F7220626157
:1005F3006E64206F6E206772617068000200FF0AEC
:100603000056616C7565206F662074686520636FA2
:100613006C6F7220666F7220746865206C6F7765EB
:100623007220636F6C6F722062616E64206F6E2044
:1006330067726170680002FFFFFFFF56616C7565AA
:10064300206F66207468652073656E736F72207700
:1006530068656E2063616C6962726174696F6E2094
:100663006F636375727300020253656E736F72205A
:1006730054797065000201446973706C6179207468
:1006830068652043757272656E742056616C75657A
:10069300206F6E2053637265656E000201446973B7
:1006A300706C617920746865204772617068207589
:1006B30073696E67204C6F6761726974686D6963F3
:1006C300205363616C65000A034C4D50393130305F
:1006D30030204F7065726174696F6E616C204D6F6D
:1006E300646520666F722053656E736F72000A0C27
:1006F3004C4D5039313030302054494120466565E6
:10070300646261636B20526573697374616E6365C0
:1007130020666F722053656E736F72000A4C4D50E2
:10072300393130303020526573697374616E63659B
:10073300204C6F616420666F722053656E736F7215
:10074300000A4C4D50393130303020496E74657297
:100753006E616C205A65726F2053656C65637469B2
:100763006F6E2053657474696E6720666F722053D1
:10077300656E736F72000A804C4D503931303030E2
:10078300205265666572656E636520566F6C746191
:10079300676520536F757263652053657474696E62
:1007A3006720666F722053656E736F72000A6E75F1
:1007B300534F434B4554204C6967687420436F6E15
:1007C30074726F6C000270706D20434F000200362C
:1007D30065C45363616C696E6720466163746F72AD
:1007E300204E756D657261746F72000246000000E1
:1007F3005363616C696E6720466163746F72204452
:10080300656E6F6D696E61746F7200029482010090
:1008130000898202BA82010000C30B02C482000075
:1008230000720902A282030000730902A48201007C
:1008330000C40B02BA82010000D30B02C68201007E
:1008430000D40B02A482010000D80B02BA8201007B
:1008530000FE0B02C882010000FF0B02A48201000C
:1008630000030C02BA82010000270C02CA820100B5
:1008730000280C02A4820100002C0C02BA820100A1
:1008830000670C02CC82010000680C02A482010004
:10089300006C0C02BA82010000920C02CE820100AD
:1008A30000930C02A482010000930C02BA8201009F
:1008B30000A50C02D082010000A60C02A482010054
:1008C30000A60C02BA82010000B60C02D28201001B
:1008D30000B70C02A482010000B70C02BA82010027
:1008E30000C70C02D482010000C80C02A4820100DC
:1008F30000C80C02BA82010000D10C02D6820100AA
:1009030000D20C02A482010000D40C02BA820100BE
:10091300000E0D02D8820100000F0D02A482010017
:1009230000110D02BA820100004D0D02DA820100AE
:10093300004E0D02A482010000500D02BA82010094
:1009430000960D02DC82010000970D02A4820100D3
:1009530000990D02BA82010000DF0D02DE82010060
:1009630000E00D02A482010000E40D02BA8201003E
:1009730000170E02E082010000180E02A48201009B
:10098300001C0E02BA82010000520E02E282010034
:1009930000530E02A482010000570E02BA82010026
:1009A300008C0E02E4820100008D0E02A48201007D
:1009B30000910E02BA82010000BD0E02E682010020
:1009C30000BE0E02A482010000BF0E02BA82010023
:1009D30000CB0E02E882010000CC0E02A4820100CB
:1009E30000CD0E02BA82010000F10E02EA8201007C
:1009F30000F20E02A482010000F30E02BA8201008B
:100A0300001D0F02EC820300001E0F02A4820100EE
:100A1300001F0F02BA82010000440F02EE8203009E
:100A230000450F02A482010000460F02BA820100B2
:100A330000720F02F082030000790902A482010010
:100A430000730F02BA82010000970F02F2820300C3
:100A5300007A0902A482010000980F02BA82010001
:100A630000CC0F02F482030000CD0F02A482010028
:100A730000CE0F02BA82010000031002F6820300C7
:100A8300007B0902A482010000041002BA82010063
:100A9300001B1002F8820100001C1002A482010056
:100AA300001C1002BA82010000231002FA82010026
:100AB30000241002A482010000281002BA8201005F
:100AC30000411002FC82010000421002A4820100D6
:100AD30000461012011452CC0312011469CC031204
:100AE300011498CC03120114D1CC03120114F9CCD4
:100AF3000312011427CD031201143ECD0312011476
:100B030055CD031201146BCD0312011492CD0312C0
:100B13000114A5CD03120114BBCD03120114CECDD4
:100B230003120114F3CD031201149CB40212011435
:100B33009DB502120114D2B502120114F3B50212CB
:100B4300011403B60212011424B6021201142CB7C5
:100B530002120114F2B702120114A6B80212011410
:100B630028B9021201142BB90212011462B902123C
:100B730001148AB9021201146ABA02120114CBBA1F
:100B83000212011438BB02120114B2BB0212011487
:100B9300B5BB02120114B8BB0212011462BC0212EB
:100BA30001147ABC02120114A4BC02120114CDBCBC
:100BB30002120114A5BD0212011462BE0212011435
:100BC3004993031201147193031201149F930312A7
:100BD3000114D693031201143E9403120114879453
:100BE30003120114D794031201141595031201146F
:100BF3005295031201148095031201140F960312E8
:100C0300011419960312011426960312011459961E
:100C130003120114259703120114319703120114CF
:100C23004997031201145397031201142DD503128C
:100C330001143BD50312011453D5031201146BD5D0
:100C430003120114F3E80112011495E901120114CE
:100C53000DEA011201142BEB011201144EEB0112E8
:100C63000114EDEB01120114C4EC01120114FDEDAA
:100C730001120114A1EE0112011413EF0112011468
:100C830016F00112011465F00112011489F001122A
:100C93000114B0F201120114F4F20112011416F35B
:100CA3000112011464F30112011466F40112011418
:100CB30053F501120114078703120114D987031294
:100CC3000114A28803120114DF88031201146C8932
:100CD30003120114F88903120114CF8A03120114B9
:100CE300FE8A03120114BF8B03120114FE8B03123D
:100CF30001148A8C03120114CE8C03120114F48C98
:100D0300031201145ED803120114A0A903120114E3
:100D1300B6A903120114DCA903120114F7AA0312E2
:100D2300011401AB031201144CAC031201144CADBA
:100D330003120114917B00120114897C0012011427
:100D4300B57C00120114677E0012011484D90112CC
:100D53000114E7D90112011427DB0112011437DB57
:100D6300011201145ADB01120114A5DB0112011453
:100D73004CDC0112011460DD0112011434DE011296
:100D83000114A8DF01120114E1DF0112011482E052
:100D930001120114CFE001120114F5E00112011454
:100DA300C8E201120114CDE201120114B4E40112EC
:100DB3000114FBE4011201146AE50112011492E526
:100DC3000112011431E601120114F3E601120114B8
:100DD30024E70112011427E7011201146FE701123E
:100DE3000114B1E7011201141EE8011201148BC7AB
:100DF300031201149EC703120114B7C7031201148F
:100E0300FCC703120114D5C8031201147AC90312D3
:100E13000114C7C903120114A43400120114B0341D
:100E230000120114E934001201142B3500120114CD
:100E3300E235001201146436001201148E360012DA
:100E43000114C73600120114FF3800120114E63AE8
:100E530000120114B93C00120114ED3D00120114FB
:100E63004440001201145241001201149D42001229
:100E73000114C24300120114DF430012011417448A
:100E830000120114314400120114A744001201148A
:100E9300AC49001201144F4A00120114AC4A00126B
:100EA3000114D34A00120114244B00120114424BC3
:100EB30000120114A04B00120114B64C00120114CD
:100EC300384D0012011475DB021201147FDB02128C
:100ED300011439DC0212011471DC021201149EDCCC
:100EE30002120114FDDC0212011423DD02120114AB
:100EF30065DD02120114A1DD02120114C9DD021223
:100F03000114FBDE0212011438DF0212011464DF44
:100F130002120114B6DF02120114DADF0212011405
:100F230024E0021201145EE002120114A0E0021296
:100F33000114D3E002120114FEE00212011459E17C
:100F43000212011492E1021201140BE202120114C3
:100F53004AE20212011491E202120114BBE20212EC
:100F63000114F8E20212011422E30212011453E302
:100F73000212011492E302120114C5E302120114D6
:100F83000EE40212011457E40212011481E4021266
:100F93000114C7A50312011405A60312011468A6C0
:100FA3000312011424A70312011405A80312011448
:100FB30033A80312011420A903120114A6C90112B4
:100FC3000114BFC901120114F7CA01120114E0CBC5
:100FD30001120114FFCB01120114C0CC0112011440
:100FE30006CE01120114A8CE011201140FD1011271
:100FF300011489D40112011416D501120114DAD592
:1010030001120114CAD60112011436D801120114B7
:10101300CCD80112011447D90112011456AD0312A1
:10102300011483AD03120114E7AD03120114F2ADF1
:1010330003120114FDAD0312011408AE03120114CF
:101043003AAE031201140CAF0312011489AF031259
:10105300011419B00312011422B00312011442B097
:101063000312011451B00312011469B003120114E5
:1010730072B00312011489B003120114AAB003124F
:101083000114B3B003120114BFB003120114C8B0AA
:1010930003120114D8B003120114E2B003120114B5
:1010A300ECB003120114FCB00312011418D40312A0
:1010B300011481D403120114D5D403120114FCD4F6
:1010C3000312011479A103120114E6A103120114FE
:1010D30028A2031201141DA30312011420A4031256
:1010E30001140AA503120114A6E402120114E8E490
:1010F30002120114D1E502120114B1E60212011425
:10110300ACE7021201148CE802120114F8E802128F
:101113000114B6E90212011426EA021201148DEA3F
:1011230002120114B8EA021201141EEB0212011496
:10113300C6EB0212011437EC0212011450EC021236
:10114300011494EC02120114ADEC021201140CED23
:10115300021201140FED0212011482B703120114DB
:10116300AAB703120114E8B70312011495B80312C6
:10117300011409B90312011425B9031201144DB95D
:10118300031201147DB9031201148CB90312011463
:1011930000BA0312011426BA0312011401830112C7
:1011A30001143E84011201149A85011201145B8615
:1011B30001120114A28601120114D1860112011435
:1011C3000887011201146387011201147987011240
:1011D3000114C587011201140E8801120114378806
:1011E300011201149F8801120114048901120114D0
:1011F300BC8C01120114C18D01120114228E011243
:101203000114A48E01120114489001120114979045
:1012130001120114CB910112011465920112011400
:10122300EC92011201143B93011201146293011217
:101233000114209401120114519401120114B89461
:10124300011201144395011201148795011201142F
:10125300A995011201149F9601120114CC96011253
:1012630001142A970112011433ED0212011455EDF2
:1012730002120114CBF20212011467F302120114D9
:10128300D8F40212011460F5021201140F66001261
:101293000114596600120114866600120114B9661E
:1012A30000120114C66600120114D2660012011462
:1012B300E466001201149E6700120114DA6700123B
:1012C3000114FF67001201143A68001201142E6A18
:1012D30000120114EE6A00120114596B001201147A
:1012E300EB6B00120114836C001201141F6D0012CA
:1012F3000114A96D00120114F36D00120114666F3D
:1013030000120114726F00120114BC6F0012011459
:10131300037000120114A47000120114C9700012AA
:1013230001146E7100120114BC7100120114E571F5
:10133300001201149772001201144A73001201146F
:10134300E97300120114557400120114AB740012F6
:101353000114037500120114267500120114DE75C1
:10136300001201141677001201145F7700120114A2
:101373007C77001201149B7700120114F27700129C
:1013830001141F7800120114947800120114CF780D
:1013930000120114D779001201146A7A00120114A1
:1013A3002C7B00120114637B00120114CDBE0212C8
:1013B30001141EBF021201142ABF0212011408C035
:1013C300021201142EC0021201145EC00212011493
:1013D300CAC002120114FCC00212011435C1021268
:1013E30001144DC102120114A2C102120114BBC1A6
:1013F3000212011404C20212011417C202120114D0
:1014030031C20212011447C2021201144FC3021265
:10141300011494C402120114BEC502120114A7C61A
:1014230002120114F27F00120114DE9C0312011454
:10143300249D03120114D69D03120114F79D031278
:101443000114EC9F0312011442A103120114C2A858
:10145300011201140CA9011201141EB0011201148E
:1014630089B10112011493B20112011418B40112CB
:101473000114F8B40112011432B50112011455B567
:101483000112011490B50112011499B5011201144E
:10149300DCB501120114E6B50112011495B601126F
:1014A300011471B701120114D0B7011201142AB843
:1014B300011201146DB8011201149CB80112011438
:1014C300F0B801120114C7B90112011483C001124B
:1014D300011489C001120114C3C5011201140BC9FF
:1014E3000112011406B1031201147CB10312011499
:1014F30092B1031201141BB20312011460B203125E
:1015030001149BB203120114EBB20312011462B370
:10151300031201146BB30312011477B30312011402
:101523008AB303120114AFB303120114C5B3031238
:10153300011428B40312011482F5021201148FF569
:1015430002120114A9F502120114E8F502120114A2
:1015530026F6021201148BF602120114A0F60212EF
:101563000114ABF602120114B8F602120114CFF6FD
:1015730002120114DDF602120114ECF60212011438
:1015830001F70212011416F70212011421F70212D5
:1015930001142DF7021201143CF70212011447F74C
:1015A300021201146AF70212011416F8021201144E
:1015B30026F80212011440F8021201145BF8021219
:1015C300011478F80212011483F8021201143CF991
:1015D300021201141DFA0212011439FA0212011443
:1015E3004EFA0212011458FA021201146CFA021292
:1015F30001148DFA02120114EEFA02120114F4FA24
:1016030002120114FAFA0212011400FB021201146D
:1016130006FB021201142DFB0212011468FB0212D5
:10162300011482FB02120114CDFB0212011400FC0F
:1016330002120114B58E02120114378F0212011423
:10164300F38F02120114859102120114DB9302122B
:101653000114AE9402120114E394021201142195B1
:10166300021201149195021201144E9702120114F1
:10167300779702120114039802120114359802128B
:1016830001144298021201148D9802120114B398A6
:10169300021201147F9B021201147C9C021201149A
:1016A300D89C021201140080021201142B81021231
:1016B30001141A82021201142482021201144682B6
:1016C30002120114528202120114EB83021201145A
:1016D3001884021201143185021201148C8502123E
:1016E3000114F88602120114D287021201143A88F7
:1016F30002120114A28802120114D78802120114E3
:101703001A8902120114D08B02120114E88B0212FF
:1017130001147D8C021201148B8C02120114D88CDB
:1017230002120114E68C02120114518D02120114EB
:10173300C28D02120114198E021201146DA9021234
:1017430001148FA902120114A0AB0212011475AE89
:101753000212011494AF0212011452B002120114C6
:1017630048B10212011405CE031201142ACE03124A
:10177300011498CE03120114DAF701120114E3F7EE
:1017830001120114ECF701120114CEF80112011435
:1017930083FA01120114B7FA01120114E6FA0112D5
:1017A30001141AFB0112011449FB011201147DFB00
:1017B30001120114A9FB01120114ECFB0112011423
:1017C3001BFC0112011462FC01120114B8FC01128A
:1017D3000114EBFC011201143BFD011201146AFD1B
:1017E30001120114B9FD01120114FCFD01120114CF
:1017F3002BFE011201145CFE0112011492FE011270
:1018030001140080031201140E800312011454808A
:1018130003120114A78003120114EF8003120114B1
:101823004981031201146F81031201147D81031294
:101833000114D981031201140C82031201141F82B3
:1018430003120114328203120114BD820312011424
:10185300568303120114D383031201140C8403125D
:101863000114948403120114EB84031201144885B8
:10187300031201145A850312011480850312011403
:10188300898503120114D08603120114F4D20312C2
:101893000114C0D30312011424C50312011469C532
:1018A30003120114A9C50312011446C7031201143C
:1018B30031FF011201144CFF011201145CFF0112EC
:1018C3000114B3FF011201140CD703120114698D23
:1018D30003120114898D03120114798E031201146A
:1018E300C28E03120114E28E03120114208F03121D
:1018F30001147B8F03120114B98F03120114039097
:1019030003120114CF92031201143893031201142A
:101913005CD90312011481D903120114F1C9031212
:1019230001142FCA031201148FCA03120114BCCA73
:1019330003120114DACA0312011422CB0312011495
:101943004ACB0312011471CB031201148BFC021254
:101953000114C1FC02120114D4FC0212011406FD8D
:10196300021201142AFD0212011400FE02120114D4
:10197300C3FE0212011442FF02120114A0FF02125D
:101983000114B2FF021201141598031201143A98BC
:10199300031201146A9803120114E4D80312011408
:1019A300A14D00120114B94F00120114335100125A
:1019B3000114D751001201146C5200120114F45295
:1019C300001201141E53001201142E5800120114A8
:1019D300C55800120114F45900120114585A001288
:1019E30001140C5B00120114635C00120114985C77
:1019F30000120114025D00120114605D0012011453
:101A0300BE5D001201141B5E00120114825E0012FF
:101A13000114C85E001201140D5F001201142E5F41
:101A23000012011420600012011457600012011407
:101A3300A66000120114CE6000120114F7600012B8
:101A430001143D61001201145B61001201149961DC
:101A530000120114E063001201141964001201144E
:101A630096640012011401650012011425D60312B5
:101A7300011436D603120114FCD6031201146EBAF4
:101A83000312011439BD031201143BDA03120114CA
:101A9300B5D703120114C5D703120114D9D7031202
:101AA30001145BD80312011410C003120114ABC05C
:101AB30003120114A1C203120114B4CF03120114BF
:101AC30004D0031201142FD003120114C5D0031242
:101AD300011443D10312011458DA0312011468DA12
:101AE300031201146BDA03120114F87F00120114BC
:101AF300BCC2031201146AC403120114D6C4031234
:101B0300011421C503120114F3FF011201145ED164
:101B130003120114B3D1031201143AD203120114B4
:101B2300A0D20312011458B4031201148BB403128C
:101B3300011485B503120114BBB60312011482C844
:101B4300021201145EC902120114A5C90212011482
:101B5300E2C9021201144ECA02120114A6CA0212E9
:101B6300011416CB02120114EECB02120114DBCCCA
:101B7300021201145FCD02120114FBCE02120114F2
:101B830084CF02120114F1CF0212011467D00212A2
:101B9300011476D002120114AAD1021201146E9715
:101BA30001120114639B01120114329E01120114EC
:101BB300589E011201147F9E01120114319F0112DC
:101BC300011414A101120114E3A101120114D6A6F8
:101BD300011201140FA701120114FCD10212011406
:101BE30086D60212011437D70212011463D70212E8
:101BF300011433D80212011485D8021201142FDA0A
:101C03000212011480DA02120114C5DA021201145D
:101C1300DBDA021201140ADB0212011447DB02129F
:101C23000114ACBD0312011485BE03120114AEBE30
:101C330003120114259D02120114699D021201145D
:101C43007C9D02120114199F02120114679F021254
:101C5300011457A702120114B0A802120114EDA82F
:101C63000212011455A902120114ABD90312011473
:101C7300F1D9031201141DDA03E066701008A3E022
:101C830066700A08A3E066700408A3E06622E49382
:101C93006670130874019366700C0874029366707F
:101CA30005087403936622C3E7960809E7960809B3
:101CB300E7960809E79622C3E09608A3E09608A3EF
:101CC300E09608A3E09622C008C3E096F50808A3AF
:101CD300E096420808A3E096420808A3E096450868
:101CE3007001D3D00822080808E630E7111224480F
:101CF300121D01080808C64480C6181818221818AF
:101D030018E9799EC608CAC608CBC608CCC6C370F4
:101D1300207996CACBCC7019798ECBCC7013798687
:101D2300CC700EF9802ACA33CACB33CBCC33CC3335
:101D33001930E7F2CCCBCA3350147004EA30E00D0B
:101D4300E4CA3ACACB3BCBCC3CCC500209C3E9131F
:101D5300C6CC182313C6CB18C6CA18C6F922121D3F
:101D6300A120F01430E72B74FFFCFBFA747F802270
:101D7300E4FCFBFA7480801AB48008BC00F2BB0058
:101D8300EF800F50EBF9E4C39AFAE49BFBE49CFC6D
:101D9300E499C6CC18C6CB18C6CA18C6F922E4C93A
:101DA300C608CAC608CBC6D3330308CCC63392F0E1
:101DB300C3947F402E94184019C9B90704CACBCCE9
:101DC300225025C309CA33CACB33CBCC33CC33D946
:101DD300F422F4600DC9CCC313CB13CBCA13CAD9F5
:101DE300F6CC22E4FCFBFA2214FCFBFA22E62618CA
:101DF300461846184622E727194719471947221854
:101E03001818E60846087009E626087005E633F454
:101E1300220822191919E70947097009E7270970E8
:101E230005E733F4220922E6084608C313460833BC
:101E33006002E633F422E7094709C3134709336015
:101E430002E733F42200121E2A604F121E39601279
:101E5300E7548066F6121E027011121DF9703B09D9
:101E63000909F4F618F618F618F622121E1670155C
:101E7300121DF008080860EAE6447FF61876801819
:101E8300E4F618F622121DF06016121DF97012E422
:101E9300F608F608F608E65480F609090918181832
:101EA30022EAC0E0EBC0E0ECC0E0EDC0E0E687F082
:101EB300A4FBACF008E687F0A42CFCE435F0FA1898
:101EC30009E687F0A42C4B60027401CA35F0FCE4E8
:101ED30033FB09E687F0D2F7A42CCB35F0FC1908C5
:101EE300E687F0A42BCC35F0FBE433FD0819E68735
:101EF300F0D2E7A42C4ACB35F0CD3400FC09E687B9
:101F0300F0D2E7A42DCC35F0FDE433FA0918E687C7
:101F1300F0D2F7A42CCD35F0CA3400FC08E687F0E4
:101F2300D2E7D2F7A42ACC35F07A7E20E70B0ACB8E
:101F330033CBCD33CDCC33CC33CB3350147004ED12
:101F430030E00ED2F1E4CD3DCDCC3CCC3B5005DAB4
:101F530005C2F1EB547FC63308E63392F0FBE73357
:101F630009E733C39A502D2B70190C0D4C4D701586
:101F73001806E608C333700D20F10AA2F013F6E445
:101F830018800B4024E4F630F002768018F618F639
:101F930018F68024D33B14501074FFA2F013F618E4
:101FA3007680E418F618F6800FA2F013F618E633DD
:101FB30003F618ECF618EDF6D0E0FDD0E0FCD0E027
:101FC300FBD0E0FA22121E2A601D121E3970051979
:101FD3001919801A121E02701F121E16C37003E60F
:101FE300673319191940071818182208080874FFCD
:101FF300F618F618F618F622121E166017121DF9B7
:10200300702192F0121DF07019501720F014080877
:1020130008090909E7F61819E7F61819E7F6181970
:10202300E7F622121DF060E6E869701F0808E6244F
:1020330080F608E436F618547FB47F0CE6548060CB
:1020430007F6E418F618F622181822E9C6CC08C6D3
:10205300CD08C6CE08C6CFC0E0E8C0E0EAC0E0EBDA
:10206300C0E009E9F809E7FA09E7FBE6F918E6F839
:10207300C3EC98ED99EE9AEBC2E7F5F0EFC2E79562
:10208300F0500E600CEBCFFBEACEFAE9CDF9E8CCC9
:10209300F8EAA2E7D2E7FAEB33FB13F5F0EEA2E797
:1020A300D2E7FEEF33FFC5F013A2E730E601B31327
:1020B300C5F0C3C0E0C0F07F00C39BFB605E941813
:1020C300600F401D14601AD0E023F9D0E0F802211C
:1020D300A98AF0E9486003D2F0E4AFF0FAF9F88096
:1020E3003BEB30E40D89F0EA6003D2F0E4AFF0F9A2
:1020F300CAF8EB30E30D88F0EF6002D2F0AFF0E402
:10210300CAC9F8EB54076014FBC3EA13FAE913F9DD
:10211300E813F8EF135002D2E0FFDBEDD0E0C0E0AC
:1021230030E739C3E49FFFF5F0EC98FC42F0ED99FA
:10213300FD42F0EE9AFE42F0D0E0F9D0E0F8E5F08F
:10214300607AE923F9EE20E742D8028067C3EF33D0
:10215300FFEC33FCED33FDEE33FE80EAEC28FCEDBF
:1021630039FDEE3AFED0E023F9D0E0F84002801BBF
:10217300C3EE13FEED13FDEC13FCEF135002D2E09C
:10218300FF08B800067F7F74FF802EEF3350178C53
:10219300F020F00260100CBC000C0DBD00080EBE58
:1021A300000408E860DFE933E813FFEE2313FE4F72
:1021B3004D4C8008E95480FFE4FEFDFCEE33EF3321
:1021C300F47004FCFD7E80D0E0FBD0E0FAD0E0F8B0
:1021D300D0E0CFC618CEC618CDC618CCC6F9221289
:1021E3001E2A700418181822121E39700D74FFF677
:1021F3001819F61819F61819F622E7548066F6121C
:102203001DF0700F121DF970F014F608F608F608A9
:10221300F680D1121DF9700CF608F608768008E6F0
:10222300447F80EC121E19700C121E0560BFE65429
:1022330080F6E480BB121E05700519191980A5E804
:1022430069700C763F18768018F618F6E8F922E6DE
:10225300CDC0E018ECC0E0E633CD33CDD313F6E7C1
:1022630019FCE7191933CC33C3947F400ECD9D502D
:102273002408E65480F6E418F6800FF4043D145065
:102283001408E6447FF6187680E418F618F6D0E0D2
:10229300FCD0E0FD22CCD313CCFD18E4C6CBC0E0C8
:1022A30018E4C6CAC0E00808ED08C633E613F618FA
:1022B300E433C675F003C3CA97CA09CB97CB199CFD
:1022C30040047D08802EBD000302238B16B6FF0554
:1022D3000606081618C3CA33CACB33CB33CA27CA78
:1022E30009CB37CB193CC37D08803E187D0820E716
:1022F3005CC633C6CA33CACB33CB33DDF1D5F0EB7F
:1023030030E77BCA97CA09CB974ACB199C406F4BDE
:102313007025E620E0218066187D08C3CA97CA09A4
:10232300CB97CB199CD3C633C6CA33CACB33CB3373
:1023330050C9DDE7D5F0E1D3E4C636C608C636C6D4
:1023430008C636C608C636C61818188031C3CA97D9
:10235300CA09CB97CB199CB34097C633C6CA33CAB5
:10236300CB33CB33DD34D5F02EC6A2E0C640C8CA8A
:1023730027CA09CB37194A70BECB3CB480B90808C9
:10238300E63308E633601F181818D0E0FAD0E0FBF4
:10239300D0E0FCD0E0FD22187D08CA27CA09CB375C
:1023A300CB193CD3808013F618E4B67F11F618B628
:1023B300FF0EF618C60470D20808768080CAF61895
:1023C300F618F680C5080808EAC0E0EBC0E086F01E
:1023D300E7A4FA180986F0E7A42AFA180986F0E7B1
:1023E300A42AFA180986F0E7A42AFA1986F0E7A4C2
:1023F300FBE5F02AFA190886F0E7A42BFBE5F03A8F
:10240300FA190886F0E7A42BFBE5F03AFA18180945
:1024130086F0E7A4C5F02BFBE43AFA1908E7C5F008
:10242300C6A426F6E5F03BFBE43AFA1886F0E7A4E7
:10243300F6E5F00826F6E43B08F6E43A08F6D0E0C1
:10244300FBD0E0FA22181818E4C396F608E496F6CF
:1024530008E496F608E496F6226016080808C6C350
:1024630013C618C613C618C613C618C613C6D5E0B6
:10247300EA227009080808226016181818C6C33320
:10248300C608C633C608C633C608C633C6D5E0EA8F
:1024930022E627F60809E637F60809E637F60809BB
:1024A300E637F622E026F608A3E036F608A3E03680
:1024B300F608A3E036F622E026F008A3E036F0089B
:1024C300A3E036F008A3E036F022C3E697F6080946
:1024D300E697F60809E697F60809E697F622C3E0B9
:1024E300C696F608A3E0C696F608A3E0C696F608D5
:1024F300A3E0C696F622C3E096F008A3E096F008A0
:10250300A3E096F008A3E096F022E056F608A3E0D5
:1025130056F608A3E056F608A3E056F622E056F076
:1025230008A3E056F008A3E056F008A3E056F02213
:10253300E046F608A3E046F608A3E046F608A3E063
:1025430046F622E046F008A3E046F008A3E046F092
:1025530008A3E046F022E0F608A3E0F608A3E0F6BD
:1025630008A3E0F622E6F008A3E6F008A3E6F008E5
:10257300A3E6F022E0FAA3E0FBA3E0FCA3E0FD2244
:10258300EAF0A3EBF0A3ECF0A3EDF022E0F8A3E074
:10259300F9A3E0FAA3E0FB22E8F0A3E9F0A3EAF051
:1025A300A3EBF022CAC0E0E6F0A308DAFAD0E0FA1F
:1025B30022CAC0E0E0A3C582CCC582C583CDC58352
:1025C300F0A3C582CCC582C583CDC583DAE6D0E04E
:1025D300CA22C3E498F8E499F91226168026C3E4C4
:1025E3009AFAE49BFBE920E7E9122616E498F8E45B
:1025F30099F922C3E498F8E499F9122616E498F8B5
:10260300E499F9C3E49AFAE49BFB22EB20E7CFE9D0
:1026130020E7E0B90010BB0008E88AF084F8AAF0CC
:1026230022E4FBC8FA22EB70227B10C833C8C933FB
:10263300C9335007C39AC3DBF280069A50012ADBE1
:10264300EAC833F4C8C933F4C9FA2275F008E4C8F8
:1026530033C8C933C933C99AC99B5004C92AC93B72
:10266300D5F0ECFBC833F4C8E4C9FA22600D08C600
:10267300A2E713C618C613C6D5E0F322600C08C63A
:10268300C313C618C613C6D5E0F422700422600D26
:1026930018C6C333C608C633C6D5E0F418222518B6
:1026A30010AF08F518400C15198008F518400215ED
:1026B30019D2AF2200C0D0251810AF08F518500C5E
:1026C30005198008F51850020519D2AFD0D022257C
:1026D30018F58210AF08F518400C15198008F51885
:1026E30040021519D2AF851983222518F582E435E6
:1026F30019F583222518F8E43519F9222518FAE487
:102703003519FB222518FCE43519FD22E47325183D
:10271300C582C0E0E51934FFC583C0E0E518C39561
:102723008224F810AF088583198582188008858371
:1027330019858218D2AFCEF0A3E520F0A37808E67E
:1027430008F0A3DEFAEFF0A3E58124FAF8E608F037
:10275300A3E608F0A3E608F0A30808E608F0A3E65A
:1027630008F0A315811581D0E0FED0E0F81581159E
:10277300811581E8C0E0EEC0E0222518C582C0E0E3
:10278300E51934FFC583C0E0E518C3958224F91029
:10279300AF08858319858218800885831985821877
:1027A300D2AFCEF0A3E520F0A37808E608F0A3DECD
:1027B300FAEFF0A3E58124FBF8E608F0A3E608F0BE
:1027C300A30808E608F0A3E608F0A315811581D055
:1027D300E0FED0E0F815811581E8C0E0EEC0E0220C
:1027E300851983851882E0A3FEE0A3F5207808E02D
:1027F300A3F608DFFAE0A3FFE0A3C0E0E0A3C0E094
:10280300E0A3C0E0E0A3C0E0E0A3C0E010AF088510
:1028130082188583198008858218858319D2AFD0E1
:1028230083D082020111851983851882E0A3FEE01B
:10283300A3F5207808E0A3F608DFFAE0A3FFE0A3FE
:10284300C0E0E0A3C0E0E0A3C0E0E0A3C0E010AFBD
:10285300088582188583198008858218858319D293
:10286300AFD083D08222C0D02518C582C0E0E5193D
:1028730034FFC583C0E0E518C3958224F310AF0885
:102883008583198582188008858319858218D2AFBC
:10289300C8F0A3E9F0A3EAF0A3EBF0A37908E709F2
:1028A300F0A3D8FAECF0A3EDF0A3EEF0A3EFF0A3BE
:1028B300D0E0F0A3D0E0F0A3D0E0F0A3E520F0A3B4
:1028C300E5F0F0A322851983851882E0C0E0A3E038
:1028D300F9A3E0FAA3E0FBA37808E0F608A3DFFA84
:1028E300E0FCA3E0FDA3E0FEA3E0FFA3E0C0E0A3C0
:1028F300E0C0E0A3E0F5D0A3E0F520A3E0A3F5F06A
:1029030010AF08858319858218800885831985820D
:1029130018D2AFD082D083D0E0F8D0E032740480F4
:1029230006740280027401C0E0F4041226D2D0E0DF
:102933001225A7227404800474028000CCC0E0ED49
:10294300C0E0E518C39CCCAD1950011D10AF068C37
:10295300188D1980068C188D19D2AF1225B4D0E0CA
:10296300FDD0E0FC22D083D082C5F0E493A3C5F070
:10297300C395F0F5F0E493A3C395F04005E5F004A7
:102983008001E475F002A42582F582E5F03583F534
:1029930083E493A3C0E0E493C0E022D083D082E930
:1029A300C0E0E493A3C386F0C5F095F0F908E4937F
:1029B300A386F0C5F095F0700BE493A3C39940058B
:1029C300E9048002A3E475F002A42582F582E5F010
:1029D3003583F583D0E0F9E493A3C0E0E493C0E04A
:1029E30022D083D082ECC0E0EDC0E0E493A3FCE40A
:1029F30093A3FDED4C600D122A30EC24FFFCED3463
:102A0300FFFD80EFE493A3FCE493A3FDED4C600D85
:102A1300122A6FEC24FFFCED34FFFD80EFD0E0FDC4
:102A2300D0E0FCE493A3C0E0E493C0E022C0E0C3A1
:102A3300E49396087401939618400FE49366700824
:102A430008740193661870007019A3A3C3E49396E6
:102A5300087401939618A3A3400DD0E0D0E0D0E012
:102A6300022A20A3A3A3A3A3A3D0E022C0E0C0F023
:102A730088F0E4936670080874019366187000A8E0
:102A8300F0A3A3700BD0F0D0E0D0E0D0E0022A2076
:072A9300A3A3D0F0D0E02264
:102A9C0074F512277DEAFEEBFFEE2434F8EF3400D8
:102AAC00F988088909EE2435122BF6F8EE24371232
:102ABC002BF6F50AEC850AF0A4FCAAF0850AF0EDD9
:102ACC00A42AFDE82CF8E43DF97A257B00122616A1
:102ADC00EA850882850983F05407F87401B800026E
:102AEC008004C333D8FCC0E0E0131313541FF8EE7A
:102AFC0028F8EF3400F9E8245DF582E93400F58319
:102B0C00D0E0F8E0586008EE2434F582EF8019EE3E
:102B1C002436122BF6F5F0EA84A8F0EE28F8EF3400
:102B2C0000F9E82438F582E9122BF9F97F04022820
:102B3C002974F712277D8A088B09EA2434F582EB75
:102B4C00122BF9C0E0EA2435F582EB3400F583D082
:102B5C00E0F08A828B83A3A3A3A3A3A3A3C082C008
:102B6C00838A828B83A3A3A3A3A3E0F8A3E0F9D069
:102B7C0083D082E0C398FEA3E099FFEA2480F5821B
:102B8C00EB122BF96401704FEA2481F582EB3400CF
:102B9C00F58312293B8A828B83A3A3A3A3A3A3A3AC
:102BAC00E0FCA3E0FD8A828B83A3A3A3A3A3E0FA9A
:102BBC00A3E0FB122BFF74021226B7E960197CF21A
:102BCC007D04AA08AB09121358E5082480F582E5A8
:102BDC00093400F583E4F0EEFCEFFDAA08AB091212
:102BEC002A9C12347E7F02022829F582EF3400F5EC
:102BFC0083E022C082C083851882851983E0F8A304
:102C0C00E0F9C3EA9CEB9D500BC3EC98ED99401294
:102C1C0079018010C3EA98EB9940F5C3EC98ED99D3
:102C2C0050EE7900D083D08222EAC39CFAEB9DFB54
:102C3C00220000008521878522C622C0E074F21292
:102C4C002869759B00906182E0A2E6503DE591A257
:102C5C00E650377591BF9003BFE0640570081215FC
:102C6C000E12151A8003121514752100121586E91F
:102C7C009003C0F079001215681212B07A017B0033
:102C8C009003BEE0F91218628049E0A2E55024E5F9
:102C9C0091A2E5501E7591DF9003BFE0640D701397
:102CAC009003E0E004F064287002E4F07A00E0F9AC
:102CBC00121628906181E0A2E35009E5E9A2E350E5
:102CCC000375E9F7A3E0A2E75009E591A2E75003E9
:102CDC0075917F7F010228C8C0E0C0D0C082C0833C
:102CEC00906183E0A2E05009E5BFA2E0500375BFFC
:102CFC00FEE0A2E15009E5BFA2E1500375BFFDE083
:102D0C00A2E25009E5BFA2E2500375BFFBE0A2E3CB
:102D1C005009E5BFA2E3500375BFF7E0A2E45009E8
:102D2C00E5BFA2E4500375BFEFE0A2E55009E5BF93
:102D3C00A2E5500375BFDFE0A2E65009E5BFA2E6AD
:102D4C00500375BFBFD083D082D0D0D0E032C0E06A
:102D5C0074F2122869E5A7A2E6500FE5A1A2E6508D
:102D6C000953A7BF75A1BF122DACE5A7A2E5500C66
:102D7C00E5A1A2E5500653A7DF75A1DFE5A7A2E107
:102D8C005009E5A1A2E1500375A1FDE5A7A2E2500F
:102D9C000CE5A1A2E2500653A7FB75A1FB022CDFA8
:102DAC0074F812277D7521019003BFE0640670153D
:102DBC001214788A828B83A3A3A3A3A3A3E0FAA300
:102DCC00E0FB1214FCA2AFE433FED2AF9003C4E0DC
:102DDC00640170187A207B009003BEE0F91218F29F
:102DEC007A207B009003BEE0F9121868906182E0B3
:102DFC00D2E6F085C62280169003C3E06401700809
:102E0C00E5C654F84405F5C653BEFC122C407401BB
:102E1C00652160E453BEFCEEA2E092AF7F01022874
:102E2C00290000008E238F2485822885832785180E
:102E3C0082851983E0CEA3E0CF852882852783EB9A
:102E4C00C9EAC8EDCBECCA75F010C3E833C8E93356
:102E5C00C9EA33CAEB33CBC3EA9EF526EB9FF525C3
:102E6C00B35004AB25AA26EC33CCED33CDD5F0DA38
:102E7C00AE23AF242274F112277D74F21226A174B2
:102E8C00061226EDECF0A3EDF0EAFEEBFF9003BF8B
:102E9C00E024F7C39405500690821202301A1214E3
:102EAC0078851882851983EAF0A3EBF08518828562
:102EBC001983E0F8A3E0F9E8497003023017EEFC3F
:102ECC00EFFD74081226EDAA82AB8312152C12307A
:102EDC00407808122559908256780812250D7402F4
:102EEC001226ED780812256874081226ED780C125B
:102EFC002559908256780C12250D74021226ED7805
:102F0C000C121CCA402974021226ED78081225599D
:102F1C007808790C1224CD85080C85090D850A0ECC
:102F2C00850B0F9081E2780C121CCA4041804785BA
:102F3C000C08850D09850E0A850F0B74021226EDFF
:102F4C0078081224E19081E27808121CCA501F758F
:102F5C000800750900750A00750B017808790C12C8
:102F6C0024CD74021226ED78081224A780089082D2
:102F7C00127808122559750C19750D00780C122948
:102F8C002474097808122475FAAB09AC0AAD0B123B
:102F9C002E3074021226B78A0C8B0D8C0E8D0F748A
:102FAC0010780C12245C123040A3A3A3A312303669
:102FBC0012261688088909E4F50AF50B780C7908AD
:102FCC00122494740C1226ED123036122616E8FADE
:102FDC008A08E4F509780C7908121CAA5007780CB9
:102FEC0079081224CD9003BFE06408600AE06406FF
:102FFC006005E06405701C9081E6780C121CCA50C8
:10300C00129081EA780C1224A7800890826E780CBA
:10301C0012255974061226ED12304C780C122568C4
:10302C00740E1226B77F08022829E0F8A3E0F97A7B
:10303C00D07B032285188285198312304CA3A322DE
:10304C00E0F8A3E0F58388822274F712277D12152D
:10305C003E1214EAE5C654804449F5C6E59E547FF9
:10306C00644970F8906185740FF0900562E0F4701B
:10307C0002A3E0604E900563E0600814601B1460CE
:10308C002E8040750801750900900562E0780812E1
:10309C00268EE508F45280802A7508017509009087
:1030AC000562E0780812268EE508F45290801475BB
:1030BC000801750900900562E0780812268EE50873
:1030CC00F452A079007F0202282974F712277DE9B7
:1030DC00FE903498E493F46008E493F91212928011
:1030EC000953C680E59E547F70FA1214F090056265
:1030FC00E0F47002A3E0604B900563E0600814609C
:10310C001A14602C803D750801750900900562E069
:10311C00780812268EE5084280802875080175090A
:10312C0000900562E0780812268EE5084290801324
:10313C00750801750900900562E0780812268EE585
:10314C000842A012153E1214788A088B09A808A907
:10315C0009E8496015E5E170FCE82414F582E934CE
:10316C0000F583E0F46003E0F5E174016E700A7A17
:10317C00019003BEE0F91218BC0230D174F1122791
:10318C007D8A0C8B0D8C0E8D0F740F1226ED78082A
:10319C00122559908256780C12250D90825678087B
:1031AC0012250D780C7908121CAA5015780C790888
:1031BC001224CD9081EE780C121CCA401579018036
:1031CC00137808790C1224CD9081EE7808121CCA61
:1031DC0040EB79007F0802282974F112277D74FCDA
:1031EC001226A1851882851983EAF0A3EBF0A3ECD3
:1031FC00F0A3EDF074131226ED7808122559908285
:10320C0056780C122559851882851983780C12254D
:10321C0020908256780812250D851882851983789E
:10322C0008121CBA4014851882851983780C122553
:10323C0059780C79081224CD801E750C00750D0080
:10324C00750E00750F01780C79081224CD85188243
:10325C00851983780C1224A7AA0CAB0DAC0EAD0FFC
:10326C0074041226B70231E074F112277D8A0C8B9C
:10327C000D8C0E8D0F740F1226ED780812255990B7
:10328C008256780C12250D908256780812250D78EE
:10329C0008790C121CAA4011780C79081224CDAABA
:1032AC000CAB0DAC0EAD0F800F7808790C1224CD41
:1032BC00AA08AB09AC0AAD0B0231E0908256780833
:1032CC001225598A828B8378081225207F040228C4
:1032DC002974F512277D8C828D8378081225598AE2
:1032EC00828B8378081224F9123335C3E09CF0A347
:1032FC00E09D123327402290824278081225598A89
:10330C00828B8378081224BA8A828B83A3A3A3A30B
:10331C00E02420F0A3E0344EF080A0F08882898372
:10332C00C3E09420A3E0944E22EA2404F8EB34008A
:10333C00F98C828D83A3A3A3A3E0FCA3E0FD888278
:10334C0089832274F512277DE9FE7A007B009007B1
:10335C00A9E064017008900508E0FAA3E0FBEEC355
:10336C0033F8E433F9745028F582748139F583E02D
:10337C002AF508A3E03BF5097808122924908276F7
:10338C00122577122E3074021226B78A088B098CFC
:10339C000A8D0B7410780812245CAA08AB097F0400
:1033AC0002282974F112277D8A0C8B0D8C0E8D0F3F
:1033BC00740F1226EDE0FAA3E0FB74111226EDE077
:1033CC00F508A3E0F50974131226EDE0FEA3E0FF67
:1033DC007808122924123473E4F50AF50B780C7969
:1033EC00081223C89081FA7808122559780C7908AC
:1033FC001223C8AA0CAB0DAC0EAD0F122E307402FA
:10340C001226B78A088B098C0A8D0B8B0DEA450D99
:10341C0060047A0180027A007410780812245CEC43
:10342C002AFCED3400FDECF8EDF97A717B021226E2
:10343C0016880889098E828F837808122568ECF823
:10344C00EDF97A717B021226161234737405780822
:10345C0012268E8E828F83A3A3A3A3E508F0A3E587
:10346C0009F07F08022829EA2401F508EB3400F55D
:10347C000922C082C083E9906000F0D083D0822200
:0A348C00C0D0C2C753BEFCD0D0323E
:10349800FFFFFFFFFFFFFFFFFFFFFFFFC082C083AB
:1034A800E9900A33F00236BA74F7122711E990024C
:1034B800DDF07C157D037AFF7BFF120EA29002DE01
:1034C80074FFF0A3F0A3E4F0A3F07905120E309096
:1034D80002DDE0F9120D587ABA7B0E12116002442F
:1034E8001274F4122711EAFEEBFF5480602C90024C
:1034F800DDE0F912184A8A088B09EA450960138A3F
:10350800828B83E064B07003120E42AA08AB0912E2
:103518001832EEFAEF6480FB80047A007B007F04A7
:103528000227E374F212271174FC1226A1EAFEEBBB
:10353800FF74121226ED123CA5EE4F70030235CE31
:1035480074021226EDEEF0A3EF124CA085188285C6
:103558001983AA82AB83120D52E9F50A706BE5084C
:10356800450960658E828F83124D97EE4F60577ABA
:10357800067B001218A48A0C8B0DA80CA90DE8492B
:103588007005750A13804288828983E4F01235D663
:10359800A3EEF0A3EFF088828983124B949002E3A4
:1035A80012365E9002E37005124CB0801CE0FCA35A
:1035B800E08003EAFCEBFD8C828D8312365E70F3AB
:1035C8008C828D8380E2750A02A90A02449DA312A7
:1035D80035DB22F088828983A32274F212271189AD
:1035E8000AE975F017A4FEAFF09002E2E4F0900249
:1035F800E012365E600A1218AA9002E0E4F0A3F026
:10360800EEFAEFFB1218A48A088B09EA4509602B29
:10361800EEFCEFFD79001218209002E0124B987B27
:10362800008008123648E4F0A3F00BEBC3950A407B
:10363800F2E50A9002E2F07900800279130244A2CE
:10364800EB75F017A4F8A9F09002E0E028FAA3E0DF
:10365800398A82F583221243A2EA4B2274F4122794
:10366800117900EAA2E0501B7508B875098178083D
:103678001229247C047D007A357B0A120E2A7402F2
:103688001226B7023526C082C0839002E31236C1E3
:10369800601C88828983A3A3E06A7003A3E06B8817
:1036A80082898370E8A3A3A3A312439E80047A00AF
:1036B8007B00D083D082020111124AA6E849227405
:1036C800F012271174FC1226A18A088B098518822A
:1036D800851983E4F0A3F0EA2402F50CEB3400F535
:1036E8000D123DD98A828B83A3A3A3A3E024FE6095
:1036F8003924FC604624FE605224FE605E24FE707D
:10370800030237DF24FE700302386124FE700302CF
:10371800387024FE700302387F24FC700302388E50
:1037280024FE700302389D0238E19002FC7417F001
:10373800A3E41238F0120ADC0238E18518828519F0
:1037480083AC82AD83120E480238AA851882851987
:1037580083AC82AD83120E4E0238AA74021226ED93
:10376800AC82AD83850A82850B831241388A0E8B21
:103778000FAC0EAD0FEC4D604CE4F50EF50F780E66
:10378800122924750EFC750F02780E122924750E65
:10379800FD750F02780E12292474081226ED1229DD
:1037A8003B7916850C82850D83124C971226B7E952
:1037B800FF70147CFC7D02850C82850D8312439E6C
:1037C800120AF4800E7F01850A82850B831238E481
:1037D800124CB0EF0238AB850A0E850B0F7402123B
:1037E80026EDAC82AD83850E82850F831241388A1F
:1037F8000A8B0BAC0AAD0BEC4D604D850E82850F24
:1038080083A3A312293B750AFC750B02780A1229B7
:1038180024750AFD750B02780A12292474081226E9
:10382800ED12293B7916850C82850D83124C97126F
:1038380026B7E9FF70147CFC7D02850C82850D8318
:1038480012439E120AFA808B7F01850E82850F83B0
:103858001238E4124CB00237DB851882851983AC24
:1038680082AD83120E54803A851882851983AC8202
:10387800AD83120E5A802B851882851983AC82ADD0
:1038880083120E60801C851882851983AC82AD83F3
:10389800120E66800D851882851983AC82AD83125D
:1038A8000E6CE9FEEE6032850882850983A3E06428
:1038B800146026850882850983A3A3A3A3E0900248
:1038C800FCF0851882851983124AA29002FD124CD9
:1038D800B0EEA31238F0120AD6023ADCE0F8A3E000
:1038E800F985188285198322F07CFC7D02850C827B
:1038F800850D831243A22274F012271174FA12263E
:10390800A174041226ED124145F508EB3400F509BF
:103918007C157D0079007AFC7B02121820E50824CA
:103928000212426C85188285198385820C85830D65
:10393800780C12292485088285098312495D122989
:1039480024E5082405F50CE5093400F50D780C127A
:103958002924124974850882850983123FFA1226A0
:10396800B78A0C8B0DAE0CAF0DE50A2402F50AE5FB
:103978000B123DDFEE4F7003023AB5801574021248
:1039880026ED12439E888289831240359002FCE01E
:1039980004F09002FCE0C394054003023AB5E4F554
:1039A8000CF50D780C122924750CE5750D02780CB0
:1039B800122924750CE6750D02780C122924740658
:1039C8001226ED12293B7910EEFCEFFD850A82855F
:1039D8000B83124C971226B7E9705C85088285091B
:1039E80083A3A3A3A3A3A3A3E0F89002E5E06870D0
:1039F800461249611229247CE67D02E5082408FA6A
:103A0800E5093400FB12181A74021226B7E9602778
:103A18008E828F83A3A3A3A312439E9002FCE0F59A
:103A28000C7402780C12268E74FD250CF582740233
:103A3800350DF58312403574021226ED85820C850A
:103A4800830D780C12292474021226ED12293B12D8
:103A58004974EEFAEFFB120D7C74041226B78A0C37
:103A68008B0DAE0CAF0D9002FCE0F50C750D0074DB
:103A780002780C12268E74FC250CF87402350DF9A8
:103A880088828983A312365E700302397CE8240396
:103A9800080808E93400F9EE4F6003023985888286
:103AA800898374FFF0A3F09002FCE004F09002FC1C
:103AB800E0600A124394120AE879008013850882AC
:103AC800850983124AA274041226ED124CAD790AB4
:103AD8007406800274041226B77F080227E374F084
:103AE80012271174F81226A174021226ED1240351D
:103AF80074061226ED12429774021226EDE0240590
:103B0800F8A3E012438A124CB085188285198312F3
:103B180043BDF508A3E0F5097E007F007404122672
:103B2800ED85820A85830B780A12292474021226ED
:103B3800ED124949F50A750B00780A122924740414
:103B48001226EDE02405F50AA3E0123DDF780A12FB
:103B5800292474061226ED124928123CAD120D7064
:103B680074061226B78A0C8B0DEA450D7003023CC9
:103B78004AEA2404123C76123CA58A828B83A3A3CA
:103B8800A3E0F974021226ED1240216003023C4AB8
:103B9800E4F50AF50B780A122924750AE5750B0273
:103BA800780A122924750AE6750B02780A12292464
:103BB800740A1226ED12293B7913AC0CAD0D740A68
:103BC8001226ED124C921226B7E9FF70759002E5A5
:103BD800E0F8EE7009E024029002FDF080149002F3
:103BE800FDE0FCE82402FAE43400FBEA6C7001EB27
:103BF80070538E82AA82123DE49414123DD1504231
:103C0800850E82850F83E0C0E0123FDFD0E01240CE
:103C18002AC0E0123FEBD0E012403B122924123CAC
:103C2800821226B79002E5E02EFE74FF6508700444
:103C380074FF6509600C123C98EEC394145003029B
:103C48003B24EE601212400374021226ED12401457
:103C5800120AEE79008012EF70027F0A74061226AB
:103C6800ED124928124B98EFF97408023ADEF50E66
:103C7800EB124270850E82F583227CE67D028E0A65
:103C880074FE250AFA74023400FB12180874022222
:103C9800E5082401F508E5093400F50922E0F508EE
:103CA800A3E0F50922A3A3E0FCA3E0FDAA08AB0961
:103CB8002274F012271174FC1226A174021226ED48
:103CC800124297EA2405F50EEB1242707F0090022B
:103CD800FCE4F0FEEA2402123DDC80489002FCE09D
:103CE800FA9002E5E0F8123DE49417123DD1400D38
:103CF8009002FCE0F87416C3989002E5F0E0F5082D
:103D080075090078081229247CE67D0274FD2AFAD8
:103D18007402123C8F1226B79002E5E0F89002FC7C
:103D2800E028F00EE50E2416F582E50F3400F58341
:103D3800E0F8EEC3984003023DC69002FCE0C3944D
:103D480016507BEEC333F8E433F9E50E28F508E5A1
:103D58000F39F509851882851983AC82AD838508EA
:103D68008212428DAC0CAD0DEC4D70137F018508AD
:103D7800828509831241321226ED124CAD8045E44A
:103D8800F50CF50D780C122924750CE5750D0278E3
:103D98000C122924750CE6750D02780C122924746E
:103DA800061226ED12293B7916850A82850B8312A5
:103DB8004C971226B7E9FF7003023CE480B0124327
:103DC80094120B00EFF9023ADCE99400C365D03392
:103DD80022EA2405F50AEB3400F50B22EA28F8E478
:103DE8003400F9E82274F012271174F81226A1851C
:103DF800188285198312403574061226ED124297EF
:103E0800851882851983E02405F50CA3E03400F5B4
:103E18000D7E007F0074041226ED858208858309D3
:103E28007808122924850C82850D83A3A3A3A3E017
:103E3800F5088E097808122924E50C2405F508E50B
:103E48000D3400F5097808122924850C82850D8324
:103E5800A3A312497A850C82850D83123FFA122694
:103E6800B78A088B09801F8882898374FFF00E1235
:103E78003FEB74FF12403B122924123C821226B7F2
:103E88009002E5E02EFEE50845096029850882854F
:103E98000983A3A31238E6124021E508240412423C
:103EA8006CEF602B850E82850F83124AA27406126E
:103EB80026ED124CADEE7003023FC4124003851884
:103EC80082851983124014120B067900023FDCE444
:103ED800F50AF50B780A122924750AE5750B02789C
:103EE8000A122924750AE6750B02780A1229247425
:103EF8000A1226ED12293B7911AC08AD0974081293
:103F080026ED124C921226B7E9FF70988E82AA828B
:103F1800EE9002E57009E024049002FDF08025E0AF
:103F2800F89002FDE0F50AE82404FCE43400FDEC16
:103F3800650A7001ED7084123DE49412123DD1407F
:103F480003023EC3850E82850F83E0C0E0123FDF87
:103F5800D0E012402AC0E0123FEBD0E0F00E74022D
:103F68001226ED85820A85830B780A1229247406A5
:103F78001226ED12293B850C82850D83123CAD1269
:103F88000D7C74041226B78A088B098E0A74FE25E4
:103F98000AF874023400F9EA45097003023E6F74A6
:103FA800021226EDE088828983F00E74021226ED53
:103FB800A3E0C0E0123FEBD0E0023E7CEF70027F4E
:103FC8000A850C82850D83124AA274061226ED1208
:103FD8004CADEFF9023C7174FE2AF582740234008C
:103FE800F583228E0A74FE250AF58274023400F5E0
:103FF80083221243A2120D707406229002FDE0F58E
:10400800F0EE849002FCF07CFC7D02221240182223
:10401800124C8CE0FAA3E0FB22124018120D5EE964
:10402800FF22F00E850E82850F83A3E022EAF0A31B
:10403800EBF022F00E9002E51249922274F012275A
:104048001174FC1226A174021226ED124145FEEBF2
:104058003400FF851882851983AC82AD838E828FE8
:10406800831241388A088B09EA4509700302410224
:10407800E50A2402F50EE50B1242708A828B83A3AF
:10408800A3A3E0A2E5502285188285198312494F1F
:1040980060637912AC08AD09850E82850F831249D9
:1040A8006A12270FE9F5087056E4F508F50978084B
:1040B8001229248E828F83A3A3E0F5087808122999
:1040C80024EE2403F508EF3400F5097808122924B2
:1040D8008E828F8312497A1243A81226B7E9F5080F
:1040E800701D1241267029850E82850F8312439E0A
:1040F800120B0C801B75080E80097508018004E5F9
:1041080008600D8E828F831241321226ED124CAD5B
:10411800124126600479008002A908023ADCEE24E4
:1041280018F582EF3400F583E022124AA6740222C1
:1041380012413C22E0FAA3E0FB120D7622ECF0A338
:10414800EDF08A0A8B0BEA24052274F01227117409
:10415800FC1226A174021226ED1242978A0E8B0FCA
:10416800123DD9750800851882851983AC82AD8304
:10417800850A8212428DAE0CAF0DEE4F70030242DB
:1041880055E50E2402F50EE50F1242708E828F83DC
:10419800A3A3A3E0A2E5502F8518828519831243B3
:1041A8009E120E7E8A088B09EA450960427912EE52
:1041B800FCEFFD850E82850F8312428312270FE9DB
:1041C800F5086003024258850E82850F83124D9BC5
:1041D800EEFAEFFB12427570127AFF7BFF124275FE
:1041E800606688828983EEF0A3EFF07E0080067512
:1041F800080E805C0E9002E2E0FAEEC39A5049EE97
:1042080075F017A4FAABF088828983A3A3E02AFA91
:10421800A3E03BFB8A828B8312497AEC4D70D575FB
:104228000C17750D00780C122924AC0AAD0B121866
:104238000874021226B7AC0AAD0B850E82850F836F
:1042480012439E120B128017750809800375080126
:10425800850A82850B831241321226ED124CADA9D4
:1042680008023ADCF50EE5093400F50F22120E7249
:104278008A0C8B0DA80CA90DE849221243A28508C7
:104288008285098322F58312413C8A0C8B0D22EC2E
:10429800F0A3EDF02274F012271174FC1226A17419
:1042A800021226ED124297EA2405F8EB12438A120D
:1042B8004CB0750900EA2402123C7612439E124D56
:1042C8002D7003024379750800806E851882851960
:1042D800831243BD6401704A8E828F83A3A312297F
:1042E8003B8E828F8312495D122924EE2405F50C3A
:1042F800EF3400F50D780C1229241243A81226B7C2
:10430800E9F509601D851882851983124928E4F0AA
:104318008E828F8312439E74021226ED1249281250
:1043280040357C177D007900EEFAEFFB1218208EDD
:10433800828F83E4F0A3F005089002E2E0F8E50834
:10434800C398501EE50875F017A4F8A9F0850A82ED
:10435800850B83A3A3124C7712497AEC4D600302B4
:1043680042D3850A82850B8374FFF0A3F0E50970B8
:104378000C850E82850F8312439E120B18A9090221
:104388003ADC3400F9851882851983227CFC7D0289
:10439800850A82850B831243A222E0FAA3E0FB225E
:1043A800850E82850F831243A2120E907406228511
:1043B8000A82850B8312492CE022C082C0839002B6
:1043C800DEE06A7003A3E06B70067ADE7B0280048D
:1043D8007A007B000236BA74F71227117F00EF7556
:1043E800F003A4F8A9F0EC28F8ED39F9888289835C
:1043F800E06A7003A3E06B7006E8FAE9FB800B0F34
:10440800EFC3940240D87A007B007F010227E3744F
:10441800F6122711124A4370067A007B008007A320
:10442800A3A3A312439E024B1074F2122711E9FEB4
:10443800740E1226EDE0F50AA3E0F50B74101226AF
:10444800EDE0F50CA3E0F50D8C828D83E06402703D
:1044580040124AA188828983E0F508A3E0F9A808F8
:104468007402687003742969702775080275090059
:104478007808122924850C08850D09780812292442
:10448800780A122924EEF9120EB474061226B7809F
:10449800027901800574041226B77F060227E374A7
:1044A800F012271174F61226A174061226ED124096
:1044B8003574021226ED12429774011226EDE9F0C6
:1044C800741C1226ED123CA574201226ED124D9B89
:1044D800851882851983E4F074021226ED124C8344
:1044E800E0A2E4502F741A1226ED12494F7003020D
:1044F80045D4790A74021226ED12497A74061226F6
:10450800ED12496A12270FE9851882851983F06030
:10451800030245DD74021226ED1243BD64026003F6
:104528000248BB74021226EDA3E0F5838882124A82
:10453800A1850882850983A385820E85830F74026D
:104548001226EDE02406F50AA3E0123DDF888289F1
:1045580083E0FAA3E0F9EA2400F50CE439F50D78D4
:104568000C1229E4010000280128944507000228BC
:104578008C460328F4450029C7470129EF4702293B
:104588008F470329C74704295848BB48EE4F705244
:10459800850A82850B83124AA2E8FAE9FB8A828B94
:1045A80083E0C0E0741E1226ED124928D0E01249BB
:1045B800891229248A828B83A3E0FCA3E0FDAA0840
:1045C800AB0912180874021226B78009851882856B
:1045D8001983740EF0851882851983E0F9740A022C
:1045E8003ADE851882851983740B80E8EE4F70F2E5
:1045F800741E1226ED1249287401F01243B785087B
:1046080082850983F07C007D0074021226ED124930
:10461800492401FAA3E03400FB120D76EA4B604905
:104628008A828B83E02402F8741E1226EDE0F9A337
:10463800E0F5838982E028F0EA2404F8EB3400F9F5
:1046480088828983E0850E82850F8312499B1249EF
:10465800891229248A828B83A312497AE5082403C4
:10466800FAE5093400FB0245CA741E1226ED12430E
:10467800BD2404F07C047D007900AA0EAB0F12184B
:10468800200245DDEE4F60030245EA1243B7FEA360
:10469800E0FF741E1226ED1249287404F0EE850816
:1046A80082850983F0EF850E82850F83F0740812E6
:1046B80026EDAC82AD83EEFAEFFB120D768A0A8BFB
:1046C8000BEA450B700302476D8A828B83A3A31202
:1046D8004D9774041226ED85820C85830D780C1293
:1046E8002924740A1226ED12293B7CFF7DFF120D46
:1046F8007C74041226B78B0DEA450D7033850A8247
:10470800850B83124961122924850A82850B83A3AC
:1047180012293B7C027D007AC07B82120BB47404A0
:104728001226B7E9700A74041226ED74FFF0A3F09C
:104738008E828F83E064027036750A02750B0078EA
:104748000A1229248E828F83A312497AE508240449
:10475800FAE509123C8F1226B7741E1226ED124391
:10476800BD2402800974041226EDEEF0A3EFF07464
:10477800041226ED12491EF074041226EDA3124904
:1047880016A3A3A30245DCEE4F60030245EA850A9F
:1047980082850B8312497A74061226ED12439E1203
:1047A8000EA88A0A741E1226ED124939E50A8508F0
:1047B80082850983F0850E82850F83EB0245DCEE46
:1047C8004F60030245EA1243B7F8A3E0F9741E12DA
:1047D80026ED124939E8850882850983F0E9850EB6
:1047E80082850F830245DC124398121802EAFC8C7A
:1047F80082A882C39EE49F404CE86E7001EF70046B
:104808007C00801E74011226EDE0FAEE2AFAEF34DD
:1048180000FBC3EA98EB94005003E08004EECCC39D
:104828009CFC741E1226ED124928ECF08C0C750DB8
:1048380000780C122924850A82850B83E02EFCA3BC
:10484800E03F0245C585188285198374070245DC57
:10485800EE4F60030245EA850A82850B83124AA25D
:10486800741E1226ED1249407407F088828983125B
:1048780049161235D7E0850E82850F83F0E82402A9
:10488800FAE93400FB8A828B831249161249801296
:10489800491E1235D6A3A3A3124922F0E82405F82D
:1048A800E93400F988828983124922A312499BA31B
:1048B800024789741A1226ED124A3C70030245D445
:1048C800124AA2880A890BE8450B70030245D48E68
:1048D8000C8F0D780C12292474201226ED12293B16
:1048E800780812292474071226EDE0F974081226B4
:1048F800ED12497A740C1226ED12496A12270F74C8
:10490800061226B7E98518828519830245DCE085F9
:104918000882850983221249A2221249A2A3A3224E
:1049280012492C2212493022E0F8A3E0F58388824C
:10493800221249407402F022E0FAA3E0F5838A8249
:1049480022124C87A3E0221243A2120E7E8A0A8BFF
:104958000BEA450B22A3A3A3A3E0F50C750D007881
:104968000C221243A2850A82850B8322850E82853A
:104978000F83E0FCA3E0FD22A3A3F08A828B83A32C
:1049880022F08A828B8312499222E0F50A750B0085
:10499800780A221235DB1249A222E08508828509AD
:1049A80083A3A32274F212271174FC1226A17402A5
:1049B8001226ED124035ECFAEDFB74141226EDE0E8
:1049C800FE74161226EDE0F50AA3E0F50B851882B1
:1049D800851983AC82AD83120D768A088B09EA4566
:1049E800096044851882851983124A3C6035A3A35F
:1049F800124A34E8450D602B780A122924741412DF
:104A080026ED12293BEEF9AC08AD0974061226ED25
:104A180012439E850C82850D8312270F740412267B
:104A2800B78006790E8002790102449D124AA68851
:104A38000C890D221243A2124A4322120E3C8A828A
:104A48008B83E58245832274F612271174FE1226A1
:104A5800A1740C1226ED124AA2E8851882851983E2
:104A6800F074011226EDE9F0E4F508F5097808126A
:104A78002924750802780812292474041226ED8561
:104A880082088583097808122924120E9074061268
:104A980026B774021226B7806FA3124AA622E0F83E
:104AA800A3E0F92274F7122711EAFEEBFF89087CCC
:104AB800157D03120EA8EA5402600BA908EEFAEF5E
:104AC800FB120D6A8002790102441274F612271152
:104AD80074FF6A700374FF6B701C7B00EB75F00346
:104AE800A4F8A9F0EC28F8ED39F9124B150BEBC333
:104AF8009402501480E6120E788A088B09A808A937
:104B080009E8496003124B157F020227E38882896E
:104B18008374FFF0A31235DBA3E4F02274F61227A6
:104B280011120E788A828B83E58245836006A3A3DF
:104B3800E0FA80027A007B0080CE74F21227118A94
:104B4800088B098C0A8D0B740E1226EDE0FE120EEE
:104B5800788A0C8B0DA80CA90DE8497022AC0AAD17
:104B68000B7AFF7BFF120E788A0A8B0BA80AA90B17
:104B7800E84970047911801188828983124B98EE74
:104B880088828983A3A3F079000244A2A3A3A3A3E4
:104B9800E508F0A3E509F02274F012271174FE125B
:104BA80026A18518828519831242978A088B09895C
:104BB8000B74121226ED124AA274141226ED124931
:104BC8007A74161226ED12439E750A00EC4D6003A6
:104BD800024C6D7402650B6003024C6888828983FD
:104BE800E0FCA3E0F9EC2400FEE439FFEAF4F8EB7A
:104BF800F4F9EE58F8EF59F9E849705F851882859D
:104C08001983E02406F50EA3E0123C79123CAF129A
:104C18000EA88A0C8B0DEE650C7003EF650D6048CD
:104C28008E0C8F0D780C122924850E82850F831225
:104C38003CAF120EAE74021226B7E9F50A70297855
:104C48000C12292474021226ED124928A3A3123C3F
:104C5800AD120EC074021226B7800D750A80800846
:104C6800750A0D8003750A0BA90A7402023ADEE080
:104C780028FEA3E039FF8E828F8322124C872212EE
:104C88004C8CA322124930A3A32212492CA3A312AD
:104C980043A2120E8A740822F0851882851983ECC3
:104CA800F0A3EDF022124940E8F0A3E9F02274F2F3
:104CB8001227118A088B09E9FF74016F600D7402CD
:104CC8006F705F790112117EE97057AA08AB09125B
:104CD8004D2D60437E00800A7C177D0079001218F4
:104CE800200E9002E2E0F8EEC3985020EE75F0171F
:104CF800A4F8A9F0850A82850B83A3A3E028FAA368
:104D0800E039FB8A828B831236C170CC850A828592
:104D18000B8374FFF0A3F07C157D03AA08AB09127E
:104D28000EA20244A2120E728A0A8B0BEA450B22CB
:104D380074F21227118A0A8B0B8C088D09740E12D3
:104D480026ED124D9B900A33E0F460407A097B000F
:104D580012182CEA4B60358A828B8374B1F0A3E475
:104D6800124982A3124980A3E50AF0A3E50B124970
:104D780082124B948A828B83A3A3A3A3A3A3A3EE3B
:104D8800F0A3EFF0900A33E0F91218380244A2A316
:104D9800A3A3A3E0FEA3E0FF2274F4122711E9FF06
:104DA8007E008A088B09780812299E00040D924F0C
:104DB800D44DF34D104E2F4E4E4E6D4E9A4EB94E69
:104DC800CE4EFA4E0D4F2C4F4A4F6B4F74016F70F9
:104DD800158C828D83E0C39403500B8C828D83E005
:104DE800900B4BF080027E18024FB274026F701362
:104DF8008C828D83E0F8A3E0F9900B4CE8F0A3E9EE
:104E0800F080027E18024FB274016F70158C828D8B
:104E180083E0C39402500B8C828D83E09007C6F028
:104E280080027E18024FB274016F70158C828D83D8
:104E3800E0C39405500B8C828D83E09007C7F08007
:104E4800027E18024FB274016F70158C828D83E058
:104E5800C39402500B8C828D83E09007C8F08002C7
:104E68007E18024FB274106F702375081075090010
:104E780078081229247AC97B0712180874021226A6
:104E8800B78A088B0985088285098380027E180203
:104E98004FB274016F70158C828D83E0C3940250F9
:104EA8000B8C828D83E09007D9F080027E18024F28
:104EB800B274016F700B8C828D83E0900B4FF08081
:104EC800027E18024FB274046F70229082767808BE
:104ED8001225598C828D837808121CBA500F8C8247
:104EE8008D8312258F9007DB12259B80027E180286
:104EF8004FB2EF700B121A18E9F508121A06800261
:104F08007E18024FB274016F70158C828D83E0C3D6
:104F18009402500B8C828D83E09007DAF080027E39
:104F280018024FB274016F70158C828D83E0C394A0
:104F38000A500B8C828D83E0900B4EF0806C7E18AB
:104F4800806874016F70188C828D83E0C39407C3E6
:104F5800940A500B8C828D83E0900B50F0804B7E2E
:104F680018804774016F701E90086DE0F88C828D70
:104F780083E090086DF0E8703190086DE06401708E
:104F880029121A0680247E188020C3EA9423EB9401
:104F980000501574026F70108C828D83E0FCA3E0C2
:104FA800FD120BC0E9FE80027E02EEF97F040227A3
:104FB800E374F112271174D81226A1890E8C0C8D76
:104FC8000D9081A6740212270774061225B4740284
:104FD800122707A90E1219ACE9FE74371226EDE064
:104FE800F508EEC3940A4003025112EEF91219E8CB
:104FF800E9FF740465086008900B4BE06402700DCB
:10500800AD08EFFCEEF9AA0CAB0D121A5A7C147D10
:1050180000790074141226FF121820851882851949
:1050280083EAF0A3EBF074141227077A1075F006E0
:10503800EEA42424F9121B98E9703B7C1079FF74C4
:10504800141226FF121886E9702C74241226EDAC6F
:1050580082AD837A0475F006EEA42425F9121B9814
:10506800E9F5097414122707EFA2E0E433F9AA0C52
:10507800AB0D120C4AE974081227077A0C74702ECB
:10508800F9121B98E9707174081226FF1219DC7E58
:1050980000805FEEF87900E875F003A4C8AAF075FF
:1050A800F000A42AFA75F003E9A42AF97408122674
:1050B800EDE58228F8E58339F9E8FAE9FB8A828B7D
:1050C80083E0F8A3E0F9E84960278A828B83A3A3E9
:1050D800E0F50A750B00780A1229248A828B83E08E
:1050E800FCA3E0FDAA0CAB0D120E9674021226B7B3
:1050F800E90EEEC39404409BEFA2E1500D9007C562
:10510800E0F9AA0CAB0D120E9CE974046508700F47
:10511800900B4BE064027007AA0CAB0D121A54797D
:105128000074281226B77F070227E374F2122711AA
:10513800890B8A088B09ECFEEDFF750A0AE50B60FE
:105148000B14600814604114605F807CAA08AB09E6
:105158001219FAE9F50AE50AC3940A506BEE4F6092
:1051680067750C06750D00780C122924AC08AD097A
:10517800EEFAEFFB12180874021226B78A088B0998
:105188008508828509838040AA08AB091219F4E9C9
:10519800F50AE50AC3940A502FEE4F602BEEFAEF9A
:1051A800FBA90A1219EEE9801FAA08AB09121A0016
:1051B800E9F50AE50AC3940A500EEE4F600AEEFAC2
:1051C800EFFBA90A1219EEE9A90A7F060227E37480
:1051D800F4122711E9FF7E1574FF6A700374FF6BE0
:1051E800702A7508008012EFFC7A027B00A9081269
:1051F80019CAE960027E000508E508C3940A40E779
:10520800EF605A7A427B1A12119080511211728AF9
:105218000A8B0B850A08850B09E5084509603C7C63
:10522800007D00E5082405FAE43509FB8508828538
:105238000983A3A3A3A3E0F91219ACE9F9E9C3947C
:105248000A500CEFFC7A027B001219CAE97E00EFC3
:10525800600BAA08AB09121A4280027E14EEF97F8D
:10526800040227E374F21227118C088D097E157445
:105278000E1226EDE0F50AA3E0F50B74FF6A700341
:1052880074FF6B701D7F00EFC3940A5058AC0AADD1
:105298000BAA08AB09EFF91219D0E960027E000FDA
:1052A80080E51211728A0C8B0D850C82850D83E5C1
:1052B800824583602E7C007D00E5822405FAE43572
:1052C80083FBA3A3A3A3E0F91219ACE9F9E9C394FA
:1052D8000A5012AC0AAD0BAA08AB091219D0E97E24
:1052E8000080027E14EEF97F060227E374F7122786
:1052F800119007DFEAF0A3EBF09007C5E0FC7D0012
:105308007A227B00120BC0E9FE9007C5E0F9120E65
:10531800187F010227E374F012271174EC1226A1FA
:10532800EAFEEBFF8E828F83A3A3E024FA700302C8
:10533800581B24FD70030256A51470030254081468
:10534800601024FD700302563C1470030256DC0200
:1053580058249007DFE0F8A3E0F9E8496066900771
:10536800DFE0F8A3E0F5838882E0F8A3E0F9E849F4
:105378006052EE240CF582E43FF583E0F5087808E6
:10538800122928EE240BF582E43FF583E0F98E829A
:105398008F83A3A3A3A3A3A3A3A3A3E0FCA3E0FDDC
:1053A800EE2403FAE43FFB9007DFE0F8A3E0F5837F
:1053B8008882E0F8A3E0F583888212270F7401122F
:1053C80026B780398E828F83A3A3A3A3A3A3A3A305
:1053D800A312293B9007DB122577120C5C7402128A
:1053E80026B7E9601879018E828F83A3A3A3A3A3AC
:1053F800A3A3A3A3E0FAA3E0FB120C56E9025824E6
:105408008E828F83A3E060030255EA8E828F83A386
:10541800A3A3A3A3E0A2E040030255EA7C0E7D000B
:105428007900AA18AB191218208A088B09AA08ABA8
:10543800098E828F83A3A3A3A3A3A3A3A3E0F8A3A6
:10544800E0F9E849604975080675090078081229E5
:10545800248E828F83A3A3A3A3A3A3A3A3E02410D2
:10546800FCA3E03400FD74021226FF12180874022F
:105478001226B78A088B098508828509838E828F50
:1054880083A3A3A3A3A3E0A2E2504DD2F0804B8E46
:10549800828F83A3A3A3E0FAA3E0FB1211728A0808
:1054A8008B09AA08AB09EA4B602B75080675090039
:1054B8007808122924EA2405FCE43BFD740212262C
:1054C800FF12180874021226B78A088B0985088209
:1054D80085098380A8025824C2F0A2F0E433F87941
:1054E80000740C1226EDE048F0A3E049F08E828F9C
:1054F80083A3A3A3A3A3A3A3A3A3A3E0F8A3E0F96F
:10550800E84960238E828F83A3A3A3A3A3A3A3A3A5
:10551800A3A3E0F8A3E0C82410F582C83400F583FB
:105528007808122559800C7508FF7509FF750AFF60
:10553800750BFF8E828F83A3A3A3A3A3A3A3A3A307
:10554800A3E0F8A3E0F9E84960178E828F83A3A34C
:10555800A3A3A3A3A3A3A3A3E0F50CA3E0F50D8045
:1055680006750C00750D008E828F83A3A3A3A3A3D9
:10557800A3A3A3E0F8A3E0F9E84960178E828F831C
:10558800A3A3A3A3A3A3A3A3E0F8A3E0F9880E8988
:105598000F8006750E00750F007808122920780C08
:1055A800122924780E122924EE240CF582E43FF502
:1055B8008312293B8E828F83A3A3A3A3A3A3E0FC1A
:1055C800A3E0FD740A1226FF1219E2740A1226B724
:1055D800E9F5088E828F83A3A3A3E0FAA3E0FB1268
:1055E8001A669007DFE0F8A3E0F9E84960439007FE
:1055F800DFE0F8A3E0F5838882A3A3E0F8A3E0F94D
:10560800E849602D8E828F83A3E0FC79018E828F1A
:1056180083A3A3A3E0FAA3E0FB9007DFE0F8A3E0ED
:10562800F5838882A3A3E0F8A3E0F5838882122794
:105638000F0258248E088F09850882850983A3A341
:10564800A3E0FAA3E0FB121A669007DFE0F8A3E0F4
:10565800F9E84960459007DFE0F8A3E0F583888220
:10566800A3A3E0F8A3E0F9E849602F8E828F83A313
:10567800E0FC7902850882850983A3A3A3E0FAA345
:10568800E0FB9007DFE0F8A3E0F5838882A3A3E0BE
:10569800F8A3E0F583888212270F0258247C007D46
:1056A80000EE2404FAE43FFB8E828F83A3A3A3E0D9
:1056B800F91219ACE9F8E8C3940A5015EE240AFC6B
:1056C800E43FFD7A0475F006E8A42425F9121B923C
:1056D800E90258249007DAE06018900B4EE0F98E42
:1056E800828F83A3A3A3E0FAA3E0FB120C56E9027E
:1056F8005824900B4BE0701579058E828F83A3A3F5
:10570800A3E0FAA3E0FB120C56E90258248E828F1C
:1057180083A3A3A3E0FAA3E0FB1211728A0A8B0BFE
:10572800850A08850B098E828F83A3A3A3A3A3A34D
:10573800A3E0A2E0506FE508450960678508828507
:105748000983A3A3A3A3E0605C8E828F83A3A3A392
:10575800A3A3A3A3A3A3E0F8A3E0F9E8C4540FF814
:105768007900E85401F8E95400F9E8A2E0403674F9
:105778000E122707E5082405FAE43509FB85088297
:10578800850983A3A3A3A3E0F91219ACE9701679DC
:10579800038E828F83A3A3A3E0FAA3E0FB120C5627
:1057A800E980798077EE2405FCE43FFD8508828551
:1057B8000983A3A3A3A3E0F98E828F83A3A3A3E005
:1057C800FAA3E0FB121A4E9007DFE0F8A3E0F9E82D
:1057D8004960499007DFE0F8A3E0F5838882A3A336
:1057E800E0F8A3E0F9E84960337C0079008E828F05
:1057F80083A3A3A3E0FAA3E0FB9007DFE0F8A3E00C
:10580800F5838882A3A3E0F8A3E0F58388821227B2
:105818000F8009120D1CE97003121A06741412265F
:10582800B77F080227E374F212271174F21226A137
:105838008908EAFEEBFF8C09AC18AD197A0E75F0F1
:1058480006E508A42420F9121B98E970647C0679FF
:10585800FFAA18AB19121886E97056740C1226EDB7
:10586800E0F8A3E0F9E8F50AE5096005EE420A80E8
:1058780004EEF4520A850A0C750D00740C1226ED1C
:10588800E0650C7004A3E0650D6022E50AF8790074
:10589800740C1226EDE8F0A3E9F0AC18AD197A0EF5
:1058A80075F006E508A42420F9121B92E979018015
:1058B800027900740E1226B77F060227E374F212EB
:1058C800271174E61226A189098A0C8B0DECFEEDCE
:1058D800FF740C1227077A0E75F006E509A4242038
:1058E800F9121B98E960030259E87C0679FF740CE9
:1058F8001226FF121886E960030259E8AC18AD19A0
:105908007A0C74702509F9121B98E960030259E4AE
:10591800750800AA18AB191219DCE50C450D702D95
:105928007C0C7900AA18AB19121886E96003025991
:10593800CA7C0C7D007900AA18AB191218208A0AB3
:105948008B0B850A82850B837508018075AC18ADB1
:1059580019AA0CAB0D1219D68A0A8B0BA80AA90B27
:10596800E849702EEE4F601BAC18AD197A007B0029
:105978001219D68A0A8B0BAA0AAB0BEAF8EBF9EADA
:105988004B70047900805B88828983E50CF0A3E57D
:105998000DF088828983A3A3E0FA7B00EE6A700287
:1059A800EF6B601EEEC0E088828983A3A3D0E0F08D
:1059B800EE4F700B888289837400F0A37400F07531
:1059C8000801E5086016AA18AB191219DCAC18AD65
:1059D800197A0C74702509F9121B92E97901800271
:1059E8007900741A1226B77F060227E374F7122784
:1059F800117F0080010FEFC39404504BEFF879003A
:105A0800E875F003A4C8AEF075F000A42EFE75F09A
:105A180003E9A42EF9EC28F582ED39F583E06A70E4
:105A280003A3E06B70CFEFF87900E875F003A4C822
:105A3800AAF075F000A42AFA75F003E9A42AF9EC93
:105A480028FAED39FB80047A007B007F010227E306
:105A580074F71227117F00025AFEEFF87900E875F3
:105A6800F003A4C8ACF075F000A42CFC75F003E9B1
:105A7800A42CF9EA28F582EB39F583E0F4FCA3E0DD
:105A8800F4FDEFF87900E875F003A4C8AEF075F0FE
:105A980000A42EFE75F003E9A42EF9EA28F582EB9E
:105AA80039F583ECF0A3EDF0EFF87900E875F00331
:105AB800A4C8ACF075F000A42CFC75F003E9A42C84
:105AC800F9EA28F582EB39F583A3A3E0F4C0E0EF07
:105AD800F87900E875F003A4C8ACF075F000A42CC0
:105AE800FC75F003E9A42CF9EA28F582EB39F58373
:105AF800A3A3D0E0F00FEFC394045003025A627FCF
:105B0800010227E374F212271174F41226A1EAFEA7
:105B1800EBFF8C0A8D0BEE4F7005790A025C59EE8B
:105B2800FAEFFB1219FAE9F508E508C3940A4006EA
:105B3800121A0CE9F508E508C3940A4003025C57F9
