:020000040000FA
:060000000200F9022CA829
:03002B000234504C
:03005300022D1E5D
:10008300022C0BE5C754F84401F5C779012200009F
:100093000080FB120086B900030200E3E4792178B3
:1000A30008B800028004F709D8FCE490028178FBC9
:1000B30079078002F0A3D8FCD9FA7A7B7B099001F7
:1000C30029787F790A8015E493A3AD82AE838A826F
:1000D3008B83F0A3AA82AB838D828E83D8E9D9E781
:1000E3007582987583BC740312010B7582917583B5
:1000F30000740012010B75D00075813F751881756E
:100103001902759F00020096C09FF59FE473D09F6C
:1001130022D083D082C09FE493C0E0740193C0E0F7
:10012300740293F59F22FF00000078002800280046
:10013300283075A000A000A000A00000080008E07F
:1001430001F000100010001000100010001000500B
:10015300005000500010001000D007000000000005
:10016300000F0030750700100001000000FF9F0C16
:10017300BD0CA50CFF02020A0A025000A0000000F9
:10018300E8030292820100008F8202BA820100001A
:10019300CA0902A082010000B00202BA8201000073
:1001A300CB0902BE81010000C50202BA8201000030
:1001B300CC0902FC82030000C70202BA82010000DC
:1001C300CD09029482030000C80202BA8201000032
:1001D300CE09029682010000CF09FF0100FF200231
:1001E30092820100008C8202BA82010000330A026B
:1001F3009882000000000002A2820300001503F5AC
:1002030013F513F513F513F513F513F513F513F5AB
:1002130013F513F513F513F513191731171317FF07
:100223000112640201029282010000868202BA82F4
:10023300010000760A02BC82010000770A02A28252
:10024300030000B707029A82010000780A02020243
:10025300020202020202010D00000010010292825A
:10026300010000918102BA82010000A20A02B68253
:10027300010000BD0702BA82010000A30A02B48292
:100283000100007C8102BA82010000A40A02B2824A
:100293000100006E8102BA82010000A50A02B08249
:1002A300010000FA8002BA82010000A60A02AE82AF
:1002B3000100000C8102BA82010000A70A02AC828D
:1002C300010000E88002BA82010000A80A02AA82A3
:1002D3000100001E8102BA82010000A90A02A8825D
:1002E300010000608102BA82010000AA0A02A6820C
:1002F300010000AB0A01E803053F10FF0001307560
:1003030003020106000000000000000000000000DE
:1003130000000000000000000000000000000000DA
:10032300FFFF0600800CE803140953656E736F72B8
:10033300424C455065726970686572616C020A00CF
:1003430002010605028D2D0F184F32205769726581
:100353006C6573732053656E736F72202D20506527
:10036300726970686572616C00C91B000010536587
:100373006E736F7220436F6D6D616E6400020020B7
:10038300030044656E6F6D696E61746F7220443053
:1003930020746F20636F6E76657274204D65617390
:1003A3007572656D656E740002FA0000004E756D1E
:1003B300657261746F72204E3020746F20636F6EAC
:1003C30076657274204D6561737572656D656E74C3
:1003D3000002320000004D656469616E2056616C55
:1003E3007565207573656420696E20737562747218
:1003F300616374696F6E20583020746F20636F6E71
:1004030076657274204D6561737572656D656E7482
:10041300000260AE0A0044656E6F6D696E61746FB1
:100423007220443120746F20636F6E76657274207E
:100433004D6561737572656D656E7400024361721B
:10044300626F6E204D6F6E6F78696465000255733D
:10045300696E6720746865204C4D503931303030F7
:10046300000254696D6520696E207365636F6E6465
:10047300730002434F202870706D2900029A014DCA
:10048300696E696D756D2076616C7565206F6E2080
:10049300746865205920417869732E20416C6C2063
:1004A3006C6F7765722076616C7565732061726518
:1004B30020636C69707065640002D0074D617869D0
:1004C3006D756D2076616C7565206F6E207468653F
:1004D300205920417869732E20416C6C2067726526
:1004E300617465722076616C756573206172652035
:1004F300636C69707065640002F40156616C756524
:10050300206F662074686520626F756E646172790E
:10051300206265747765656E2074686520746F70FA
:1005230020616E64206D6964646C6520636F6C6F19
:10053300722062616E6473206F6E206772617068EF
:100543000002BD0156616C7565206F662074686595
:1005530020626F756E646172792062657477656578
:100563006E20746865206D6964646C6520616E64D7
:10057300206C6F7720636F6C6F722062616E64739F
:10058300206F6E2067726170680002000AFF0056D8
:10059300616C7565206F662074686520636F6C6F8E
:1005A3007220666F722074686520746F7020636FA9
:1005B3006C6F722062616E64206F6E20677261706F
:1005C30068000200FAFF0056616C7565206F6620B3
:1005D30074686520636F6C6F7220666F7220746835
:1005E30065206D6964646C6520636F6C6F72206253
:1005F300616E64206F6E206772617068000200FF95
:100603000A0056616C7565206F6620746865206307
:100613006F6C6F7220666F7220746865206C6F77E1
:10062300657220636F6C6F722062616E64206F6EFF
:100633002067726170680002FFFFFFFF56616C75EF
:1006430065206F66207468652073656E736F722012
:100653007768656E2063616C6962726174696F6E3D
:10066300206F636375727300020253656E736F725A
:100673002054797065000201446973706C617920BC
:100683007468652043757272656E742056616C756B
:1006930065206F6E2053637265656E0002014469C5
:1006A30073706C617920746865204772617068208B
:1006B3007573696E67204C6F6761726974686D69E1
:1006C30063205363616C65000A034C4D503931302C
:1006D3003030204F7065726174696F6E616C204DAC
:1006E3006F646520666F722053656E736F72000AC4
:1006F3000C4C4D503931303030205449412046653F
:1007030065646261636B20526573697374616E63C0
:100713006520666F722053656E736F72000A4C4DCD
:1007230050393130303020526573697374616E63B0
:1007330065204C6F616420666F722053656E736F22
:1007430072000A4C4D50393130303020496E746597
:10075300726E616C205A65726F2053656C656374A9
:10076300696F6E2053657474696E6720666F7220BB
:1007730053656E736F72000A804C4D5039313030BF
:1007830030205265666572656E636520566F6C74C2
:1007930061676520536F757263652053657474696F
:1007A3006E6720666F722053656E736F72000270FE
:1007B300706D20434F0002003665C45363616C695A
:1007C3006E6720466163746F72204E756D6572614A
:1007D300746F720002460000005363616C696E67B8
:1007E30020466163746F722044656E6F6D696E613C
:1007F300746F7200029282010000898202BA820140
:100803000000C20B02C482000000720902A282032C
:100813000000730902A482010000C30B02BA820123
:100823000000D20B02C682010000D30B02A4820196
:100833000000D70B02BA82010000FD0B02C882013F
:100843000000FE0B02A482010000020C02BA820126
:100853000000260C02CA82010000270C02A48201B8
:1008630000002B0C02BA82010000660C02CC82014C
:100873000000670C02A4820100006B0C02BA820123
:100883000000910C02CE82010000920C02A48201AE
:100893000000920C02BA82010000A20C02D0820175
:1008A3000000A30C02A482010000A30C02BA82017F
:1008B3000000B60C02D282010000B70C02A4820130
:1008C3000000B70C02BA82010000C70C02D48201F7
:1008D3000000C80C02A482010000C80C02BA820105
:1008E3000000D10C02D682010000D20C02A48201C6
:1008F3000000D40C02BA820100000E0D02D882015E
:1009030000000F0D02A482010000110D02BA820142
:1009130000004D0D02DA820100004E0D02A4820197
:100923000000500D02BA82010000960D02DC820124
:100933000000970D02A482010000990D02BA820102
:100943000000DF0D02DE82010000E00D02A482013F
:100953000000E40D02BA82010000170E02E08201DA
:100963000000180E02A4820100001C0E02BA8201CC
:100973000000520E02E282010000530E02A4820123
:100983000000570E02BA820100008C0E02E48201BD
:1009930000008D0E02A482010000910E02BA8201B2
:1009A3000000BD0E02E682010000BE0E02A4820119
:1009B3000000BF0E02BA82010000CB0E02E88201E2
:1009C3000000CC0E02A482010000CD0E02BA820107
:1009D3000000F10E02EA82010000F20E02A482017D
:1009E3000000F30E02BA820100001D0F02EC820325
:1009F30000001E0F02A4820100001F0F02BA820131
:100A03000000440F02EE82030000450F02A482019E
:100A13000000460F02BA82010000720F02F0820347
:100A23000000790902A482010000730F02BA820157
:100A33000000970F02F2820300007A0902A48201E8
:100A43000000980F02BA82010000CC0F02F4820367
:100A53000000CD0F02A482010000CE0F02BA820172
:100A63000000031002F682010000041002A48201B8
:100A73000000041002BA820100000B1002F8820188
:100A830000000C1002A482010000101002BA8201BF
:100A93000000291002FA820100002A1002A4820138
:100AA30000002E10120114A0CB03120114B7CB03C4
:100AB300120114E6CB031201141FCC0312011447D5
:100AC300CC0312011475CC031201148CCC03120154
:100AD30014A3CC03120114B9CC03120114E0CC0308
:100AE300120114F3CC0312011409CD031201141CD7
:100AF300CD0312011441CD031201145BB4021201A0
:100B0300145CB50212011491B502120114B2B502BC
:100B1300120114C2B502120114E3B502120114EB5F
:100B2300B602120114B1B70212011465B802120120
:100B330014E7B802120114EAB80212011421B9022F
:100B430012011449B90212011429BA021201148ABA
:100B5300BA02120114F7BA0212011471BB02120194
:100B63001474BB0212011477BB0212011421BC02DC
:100B730012011439BC0212011463BC021201148C59
:100B8300BC0212011464BD0212011421BE0212013F
:100B9300144993031201147193031201149F9303D5
:100BA300120114D693031201143E94031201148705
:100BB3009403120114D7940312011415950312011F
:100BC300145295031201148095031201140F960316
:100BD30012011419960312011426960312011459D3
:100BE300960312011425970312011431970312017E
:100BF300144997031201145397031201147BD4036E
:100C030012011489D403120114A1D403120114B9DB
:100C1300D403120114F1E80112011493E901120142
:100C2300140BEA0112011429EB011201144CEB011C
:100C3300120114EBEB01120114C2EC01120114FBBB
:100C4300ED011201149FEE0112011411EF011201C3
:100C53001414F00112011463F00112011487F0015E
:100C6300120114AEF201120114F2F2011201141472
:100C7300F30112011462F30112011464F40112016D
:100C83001451F501120114078703120114D98703C4
:100C9300120114A28803120114DF88031201146CD9
:100CA3008903120114F88903120114CF8A03120174
:100CB30014FE8A03120114BF8B03120114FE8B036B
:100CC3001201148A8C03120114CE8C03120114F442
:100CD3008C03120114ACD7031201148DA503120166
:100CE30014A3A503120114C9A503120114E4A60356
:100CF300120114EEA60312011439A80312011439C8
:100D0300A903120114DE9C03120114D69D031201E0
:100D130014029E03120114B49F0312011482D90119
:100D2300120114E5D90112011425DB011201143556
:100D3300DB0112011458DB01120114A3DB011201C0
:100D4300144ADC011201145EDD0112011432DE01CA
:100D5300120114A6DF01120114DFDF011201148056
:100D6300E001120114CDE001120114F3E0011201BC
:100D730014C6E201120114CBE201120114B2E40120
:100D8300120114F9E40112011468E501120114902F
:100D9300E5011201142FE601120114F1E60112011B
:100DA3001422E70112011425E7011201146DE70172
:100DB300120114AFE7011201141CE801120114D946
:100DC300C603120114ECC60312011405C703120172
:100DD300144AC70312011423C803120114C8C80319
:100DE30012011415C903120114683400120114749A
:100DF3003400120114AD3400120114EF3400120157
:100E030014A63500120114283600120114523600BC
:100E13001201148B3600120114C33800120114AAF4
:100E23003A001201147D3C00120114B13D0012017D
:100E3300140840001201141641001201146142000B
:100E4300120114864300120114A34300120114DBA0
:100E53004300120114F543001201146B4400120104
:100E630014704900120114134A00120114704A004D
:100E7300120114974A00120114E84A0012011406E1
:100E83004B00120114644B001201147A4C0012013E
:100E930014FC4C00120114F3DA02120114FDDA02FD
:100EA300120114B7DB02120114EFDB021201141C4E
:100EB300DC021201147BDC02120114A1DC02120118
:100EC30014E3DC021201141FDD0212011447DD02D8
:100ED30012011479DE02120114B6DE02120114E2C9
:100EE300DE0212011434DF0212011458DF02120170
:100EF30014A2DF02120114DCDF021201141EE0024D
:100F030012011451E0021201147CE002120114D701
:100F1300E00212011410E10212011489E10212012C
:100F230014C8E1021201140FE20212011439E202A1
:100F330012011476E202120114A0E202120114D18A
:100F4300E20212011410E30212011443E30212013C
:100F5300148CE302120114D5E302120114FFE3021D
:100F630012011409FC0212011447FC02120114AA13
:100F7300FC0212011466FD0212011447FE02120163
:100F83001475FE0212011462FF02120114A4C901B6
:100F9300120114BDC901120114F5CA01120114DEB4
:100FA300CB01120114FDCB01120114BECC011201BD
:100FB3001404CE01120114A6CE011201140DD101A5
:100FC30012011487D40112011414D501120114D88B
:100FD300D501120114C8D60112011434D80112012B
:100FE30014CAD80112011445D90112011443A903EB
:100FF30012011470A903120114D4A903120114DFFE
:10100300A903120114EAA903120114F5A903120199
:101013001427AA03120114F9AA0312011476AB03CD
:1010230012011406AC031201140FAC031201142FA6
:10103300AC031201143EAC0312011456AC031201AB
:10104300145FAC0312011476AC0312011497AC03C2
:10105300120114A0AC03120114ACAC03120114B5B9
:10106300AC03120114C5AC03120114CFAC0312017B
:1010730014D9AC03120114E9AC0312011466D303AF
:10108300120114CFD30312011423D4031201144AFF
:10109300D4031201143FA103120114ACA1031201E2
:1010A30014EEA103120114E3A203120114E6A30335
:1010B300120114D0A40312011424E40212011466D1
:1010C300E4021201144FE5021201142FE602120189
:1010D300142AE7021201140AE80212011476E80244
:1010E30012011434E902120114A4E9021201140BCF
:1010F300EA0212011436EA021201149CEA021201F6
:101103001444EB02120114B5EB02120114CEEB02EC
:1011130012011412EC021201142BEC021201148AB4
:10112300EC021201148DEC02120114D3B603120166
:1011330014FBB60312011439B703120114E6B70303
:101143001201145AB80312011476B8031201149E43
:10115300B803120114CEB803120114DDB80312014F
:101163001451B90312011477B903120114FF820158
:101173001201143C840112011498850112011459BF
:101183008601120114A08601120114CF86011201F7
:101193001406870112011461870112011477870174
:1011A300120114C387011201140C880112011435B2
:1011B30088011201149D8801120114028901120190
:1011C30014BA8C01120114BF8D01120114208E0177
:1011D300120114A28E0112011446900112011495FA
:1011E3009001120114C991011201146392011201B9
:1011F30014EA92011201143993011201146093014C
:101203001201141E94011201144F9401120114B619
:1012130094011201144195011201148595011201E3
:1012230014A795011201149D9601120114CA960187
:10123300120114289701120114B1EC02120114D304
:10124300EC0212011449F202120114E5F202120136
:101253001456F402120114DEF402120114D36500D1
:101263001201141D66001201144A66001201147D56
:1012730066001201148A66001201149666001201B8
:1012830014A866001201146267001201149E67001D
:10129300120114C36700120114FE6700120114F255
:1012A3006900120114B26A001201141D6B001201CD
:1012B30014AF6B00120114476C00120114E36C00AD
:1012C3001201146D6D00120114B76D001201142A7E
:1012D3006F00120114366F00120114806F001201A7
:1012E30014C76F001201146870001201148D70008E
:1012F300120114327100120114807100120114A939
:1013030071001201145B72001201140E73001201BA
:1013130014AD73001201141974001201146F7400D8
:10132300120114C77400120114EA7400120114A20A
:101333007500120114DA76001201142377001201EA
:10134300144077001201145F7700120114B677007E
:10135300120114E377001201145878001201149358
:1013630078001201149B79001201142E7A001201E5
:1013730014F07A00120114277B001201148CBE02B0
:10138300120114DDBE02120114E9BE02120114C7D8
:10139300BF02120114EDBF021201141DC00212019B
:1013A3001489C002120114BBC002120114F4C0025A
:1013B3001201140CC10212011461C1021201147A48
:1013C300C102120114C3C102120114D6C1021201D7
:1013D30014F0C10212011406C2021201140EC30258
:1013E30012011453C4021201147DC50212011466C2
:1013F300C602120114F1FF01120114557B00120100
:10140300149B7B001201144D7C001201146E7C00AE
:10141300120114637E00120114B97F00120114C07B
:10142300A8011201140AA9011201141CB00112012E
:101433001487B10112011491B20112011416B401FF
:10144300120114F6B40112011430B5011201145340
:10145300B5011201148EB50112011497B5011201E1
:1014630014DAB501120114E4B50112011493B601A3
:101473001201146FB701120114CEB701120114281F
:10148300B8011201146BB8011201149AB8011201C8
:1014930014EEB801120114C5B90112011481C0017F
:1014A30012011487C001120114C1C50112011409EC
:1014B300C90112011457B003120114CDB003120174
:1014C30014E3B0031201146CB103120114B1B1039C
:1014D300120114ECB1031201143CB203120114B350
:1014E300B203120114BCB203120114C8B2031201F5
:1014F30014DBB20312011400B30312011416B30375
:1015030012011479B30312011400F5021201140D30
:10151300F50212011427F50212011466F5021201F5
:1015230014A4F50212011409F6021201141EF602A4
:1015330012011429F60212011436F6021201144D97
:10154300F6021201145BF6021201146AF60212018A
:10155300147FF60212011494F6021201149FF6028C
:10156300120114ABF602120114BAF602120114C5E9
:10157300F602120114E8F60212011494F7021201A2
:1015830014A4F702120114BEF702120114D9F702D0
:10159300120114F6F70212011401F802120114BA2F
:1015A300F8021201149BF902120114B7F902120195
:1015B30014CCF902120114D6F902120114EAF90249
:1015C3001201140BFA021201146CFA0212011472C2
:1015D300FA0212011478FA021201147EFA021201BD
:1015E3001484FA02120114ABFA02120114E6FA028D
:1015F30012011400FB021201144BFB021201147EB0
:10160300FB02120114B58E02120114378F0212016C
:1016130014F38F02120114859102120114DB930259
:10162300120114AE9402120114E394021201142164
:1016330095021201149195021201144E97021201A0
:1016430014779702120114039802120114359802B9
:101653001201144298021201148D9802120114B35C
:1016630098021201147F9B021201147C9C02120146
:1016730014D89C021201140080021201142B81025F
:101683001201141A82021201142482021201144656
:101693008202120114528202120114EB830212011C
:1016A300141884021201143185021201148C85026C
:1016B300120114F88602120114D287021201143A9D
:1016C3008802120114A28802120114D7880212019F
:1016D300141A8902120114D08B02120114E88B022E
:1016E3001201147D8C021201148B8C02120114D886
:1016F3008C02120114E68C02120114518D021201A4
:1017030014C28D02120114198E021201142CA902A3
:101713001201144EA9021201145FAB021201143418
:10172300AE0212011453AF0212011411B0021201DE
:101733001407B10212011453CD0312011478CD031F
:10174300120114E6CD03120114D8F701120114E1BA
:10175300F701120114EAF701120114CCF801120186
:101763001481FA01120114B5FA01120114E4FA0109
:1017730012011418FB0112011447FB011201147B1F
:10178300FB01120114A7FB01120114EAFB01120170
:101793001419FC0112011460FC01120114B6FC01BE
:1017A300120114E9FC0112011439FD01120114683C
:1017B300FD01120114B7FD01120114FAFD0112011A
:1017C3001429FE011201145AFE0112011490FE01A4
:1017D3001201140080031201140E80031201145429
:1017E3008003120114A78003120114EF8003120176
:1017F300144981031201146F81031201147D8103C3
:10180300120114D981031201140C82031201141F53
:101813008203120114328203120114BD82031201E6
:1018230014568303120114D383031201140C84038B
:10183300120114948403120114EB8403120114485B
:1018430085031201145A85031201148085031201C2
:1018530014898503120114D0860312011442D203A2
:101863001201140ED30312011472C403120114B72C
:10187300C403120114F7C40312011494C603120122
:10188300142FFF011201144AFF011201145AFF0120
:10189300120114B1FF011201145AD6031201146983
:1018A3008D03120114898D03120114798E03120121
:1018B30014C28E03120114E28E03120114208F034B
:1018C3001201147B8F03120114B98F031201140345
:1018D3009003120114CF92031201143893031201DF
:1018E30014AAD803120114CFD8031201143FC90359
:1018F3001201147DC903120114DDC9031201140A74
:10190300CA0312011428CA0312011470CA03120174
:101913001498CA03120114BFCA03120114F3AC03CF
:1019230012011429AD031201143CAD031201146E0C
:10193300AD0312011492AD0312011468AE03120138
:10194300142BAF03120114AAAF0312011408B0033E
:101953001201141AB0031201141598031201143A58
:1019630098031201146A980312011432D803120166
:1019730014654D001201147D4F00120114F750003D
:101983001201149B5100120114305200120114B8B9
:101993005200120114E25200120114F25700120114
:1019A30014895800120114B859001201141C5A006A
:1019B300120114D05A00120114275C001201145CA6
:1019C3005C00120114C65C00120114245D001201B4
:1019D30014825D00120114DF5D00120114465E00E3
:1019E3001201148C5E00120114D15E00120114F274
:1019F3005E00120114E45F001201141B6000120167
:101A0300146A6000120114926000120114BB60009A
:101A13001201140161001201141F61001201145D0F
:101A23006100120114A46300120114DD63001201AA
:101A3300145A6400120114C5640012011473D5030F
:101A430012011484D5031201144AD603120114BFE0
:101A5300B9031201148ABC031201146BD9031201D6
:101A63001403D70312011413D70312011427D70346
:101A7300120114A9D7031201145EBF03120114F952
:101A8300BF03120114EFC10312011402CF031201A9
:101A93001452CF031201147DCF0312011413D00388
:101AA30012011491D00312011488D903120114985E
:101AB300D9031201149BD903120114F87F001201F8
:101AC300140AC203120114B8C30312011424C40379
:101AD3001201146FC403120114F07F00120114AC3D
:101AE300D00312011401D10312011488D10312018E
:101AF30014EED103120114A9B303120114DCB303CE
:101B0300120114D6B4031201140CB60312011441CA
:101B1300C8021201141DC90212011464C902120180
:101B230014A1C9021201140DCA0212011465CA02DA
:101B3300120114D5CA02120114ADCB021201149A78
:101B4300CC021201141ECD02120114BACE021201EC
:101B53001443CF02120114B0CF0212011426D00293
:101B630012011435D00212011469D1021201146C4E
:101B73009701120114619B01120114309E0112019D
:101B830014569E011201147D9E011201142F9F0110
:101B930012011412A101120114E1A101120114D4C2
:101BA300A6011201140DA701120114BBD1021201E7
:101BB3001432D602120114E3D6021201140FD70213
:101BC300120114DFD70212011431D802120114DBFF
:101BD300D9021201142CDA0212011471DA02120171
:101BE3001487DA02120114B6DA02120114FDBC03DF
:101BF300120114D6BD03120114FFBD0312011425F3
:101C03009D02120114699D021201147C9D021201AE
:101C1300140B9F02120114599F021201142EA702E2
:101C230012011487A802120114C4A802120114F9A4
:101C3300D8031201143FD903120114E2FF02E06634
:101C4300701008A3E066700A08A3E066700408A396
:101C5300E06622E4936670130874019366700C08BF
:101C6300740293667005087403936622C3E79608AB
:101C730009E7960809E7960809E79622C3E096085C
:101C8300A3E09608A3E09608A3E09622C008C3E069
:101C930096F50808A3E096420808A3E096420808D0
:101CA300A3E09645087001D3D00822080808E6305F
:101CB300E71112240D121CC6080808C64480C61872
:101CC300181822181818E9799EC608CAC608CBC680
:101CD30008CCC6C370207996CACBCC7019798ECB49
:101CE300CC70137986CC700EF9802ACA33CACB33F1
:101CF300CBCC33CC331930E7F2CCCBCA335014708E
:101D030004EA30E00DE4CA3ACACB3BCBCC3CCC501E
:101D13000209C3E913C6CC182313C6CB18C6CA18C5
:101D2300C6F922121D6620F01430E72B74FFFCFB6A
:101D3300FA747F8022E4FCFBFA7480801AB4800872
:101D4300BC00F2BB00EF800F50EBF9E4C39AFAE456
:101D53009BFBE49CFCE499C6CC18C6CB18C6CA18F6
:101D6300C6F922E4C9C608CAC608CBC6D3330308DA
:101D7300CCC63392F0C3947F402E94184019C9B94E
:101D83000704CACBCC225025C309CA33CACB33CBF1
:101D9300CC33CC33D9F422F4600DC9CCC313CB13A9
:101DA300CBCA13CAD9F6CC22E4FCFBFA2214FCFBFF
:101DB300FA22E62618461846184622E72719471935
:101DC30047194722181818E60846087009E6260836
:101DD3007005E633F4220822191919E70947097037
:101DE30009E727097005E733F4220922E6084608C4
:101DF300C3134608336002E633F422E7094709C3F5
:101E0300134709336002E733F42200121DEF604FDA
:101E1300121DFE6012E7548066F6121DC770111280
:101E23001DBE703B090909F4F618F618F618F622D8
:101E3300121DDB7015121DB508080860EAE6447F21
:101E4300F618768018E4F618F622121DB5601612FD
:101E53001DBE7012E4F608F608F608E65480F6098B
:101E6300090918181822EAC0E0EBC0E0ECC0E0ED65
:101E7300C0E0E687F0A4FBACF008E687F0A42CFCF6
:101E8300E435F0FA1809E687F0A42C4B60027401DC
:101E9300CA35F0FCE433FB09E687F0D2F7A42CCB78
:101EA30035F0FC1908E687F0A42BCC35F0FBE433BE
:101EB300FD0819E687F0D2E7A42C4ACB35F0CD34E0
:101EC30000FC09E687F0D2E7A42DCC35F0FDE4331E
:101ED300FA0918E687F0D2F7A42CCD35F0CA3400FE
:101EE300FC08E687F0D2E7D2F7A42ACC35F07A7E55
:101EF30020E70B0ACB33CBCD33CDCC33CC33CB3331
:101F030050147004ED30E00ED2F1E4CD3DCDCC3C65
:101F1300CC3B5005DA05C2F1EB547FC63308E633F8
:101F230092F0FBE73309E733C39A502D2B70190C5A
:101F33000D4C4D70151806E608C333700D20F10AD9
:101F4300A2F013F6E418800B4024E4F630F0027696
:101F53008018F618F618F68024D33B14501074FF3B
:101F6300A2F013F6187680E418F618F6800FA2F0A4
:101F730013F618E63303F618ECF618EDF6D0E0FD89
:101F8300D0E0FCD0E0FBD0E0FA22121DEF601D127E
:101F93001DFE7005191919801A121DC7701F121D15
:101FA300DBC37003E66733191919400718181822A1
:101FB30008080874FFF618F618F618F622121DDB47
:101FC3006017121DBE702192F0121DB570195017C3
:101FD30020F014080808090909E7F61819E7F618A4
:101FE30019E7F61819E7F622121DB560E6E86970DD
:101FF3001F0808E62480F608E436F618547FB47FF9
:102003000CE654806007F6E418F618F62218182236
:10201300E9C6CC08C6CD08C6CE08C6CFC0E0E8C026
:10202300E0EAC0E0EBC0E009E9F809E7FA09E7FBF9
:10203300E6F918E6F8C3EC98ED99EE9AEBC2E7F5EA
:10204300F0EFC2E795F0500E600CEBCFFBEACEFA4F
:10205300E9CDF9E8CCF8EAA2E7D2E7FAEB33FB13D0
:10206300F5F0EEA2E7D2E7FEEF33FFC5F013A2E7E8
:1020730030E601B313C5F0C3C0E0C0F07F00C39BDB
:10208300FB605E9418600F401D14601AD0E023F9C2
:10209300D0E0F802216E8AF0E9486003D2F0E4AFA1
:1020A300F0FAF9F8803BEB30E40D89F0EA6003D2F3
:1020B300F0E4AFF0F9CAF8EB30E30D88F0EF60021B
:1020C300D2F0AFF0E4CAC9F8EB54076014FBC3EADB
:1020D30013FAE913F9E813F8EF135002D2E0FFDB28
:1020E300EDD0E0C0E030E739C3E49FFFF5F0EC98B2
:1020F300FC42F0ED99FD42F0EE9AFE42F0D0E0F999
:10210300D0E0F8E5F0607AE923F9EE20E742D8025F
:102113008067C3EF33FFEC33FCED33FDEE33FE801A
:10212300EAEC28FCED39FDEE3AFED0E023F9D0E0ED
:10213300F84002801BC3EE13FEED13FDEC13FCEF1E
:10214300135002D2E0FF08B800067F7F74FF802E91
:10215300EF3350178CF020F00260100CBC000C0D14
:10216300BD00080EBE000408E860DFE933E813FF92
:10217300EE2313FE4F4D4C8008E95480FFE4FEFD2F
:10218300FCEE33EF33F47004FCFD7E80D0E0FBD033
:10219300E0FAD0E0F8D0E0CFC618CEC618CDC61806
:1021A300CCC6F922121DEF700418181822121DFE56
:1021B300700D74FFF61819F61819F61819F622E7B8
:1021C300548066F6121DB5700F121DBE70F014F622
:1021D30008F608F608F680D1121DBE700CF608F654
:1021E30008768008E6447F80EC121DDE700C121D19
:1021F300CA60BFE65480F6E480BB121DCA7005199D
:10220300191980A5E869700C763F18768018F618BE
:10221300F6E8F922E6CDC0E018ECC0E0E633CD33B2
:10222300CDD313F6E719FCE7191933CC33C3947FE5
:10223300400ECD9D502408E65480F6E418F6800F36
:10224300F4043D14501408E6447FF6187680E4182D
:10225300F618F6D0E0FCD0E0FD22CCD313CCFD1869
:10226300E4C6CBC0E018E4C6CAC0E00808ED08C65F
:1022730033E613F618E433C675F003C3CA97CA09E5
:10228300CB97CB199C40047D08802EBD000302230D
:102293005016B6FF050606081618C3CA33CACB3351
:1022A300CB33CA27CA09CB37CB193CC37D08803E41
:1022B300187D0820E75CC633C6CA33CACB33CB3399
:1022C300DDF1D5F0EB30E77BCA97CA09CB974ACB50
:1022D300199C406F4B7025E620E0218066187D082D
:1022E300C3CA97CA09CB97CB199CD3C633C6CA3383
:1022F300CACB33CB3350C9DDE7D5F0E1D3E4C636DF
:10230300C608C636C608C636C608C636C61818185E
:102313008031C3CA97CA09CB97CB199CB34097C6E0
:1023230033C6CA33CACB33CB33DD34D5F02EC6A282
:10233300E0C640C8CA27CA09CB37194A70BECB3C8E
:10234300B480B90808E63308E633601F181818D0BC
:10235300E0FAD0E0FBD0E0FCD0E0FD22187D08CA13
:1023630027CA09CB37CB193CD3808013F618E4B6C0
:102373007F11F618B6FF0EF618C60470D208087659
:102383008080CAF618F618F680C5080808EAC0E087
:10239300EBC0E086F0E7A4FA180986F0E7A42AFA6E
:1023A300180986F0E7A42AFA180986F0E7A42AFA9E
:1023B3001986F0E7A4FBE5F02AFA190886F0E7A4EA
:1023C3002BFBE5F03AFA190886F0E7A42BFBE5F0BE
:1023D3003AFA18180986F0E7A4C5F02BFBE43AFA99
:1023E3001908E7C5F0C6A426F6E5F03BFBE43AFA84
:1023F3001886F0E7A4F6E5F00826F6E43B08F6E4D1
:102403003A08F6D0E0FBD0E0FA22181818E4C39695
:10241300F608E496F608E496F608E496F6226016C3
:10242300080808C6C313C618C613C618C613C618A9
:10243300C613C6D5E0EA22700908080822601618F8
:102443001818C6C333C608C633C608C633C608C67B
:1024530033C6D5E0EA22E627F60809E637F6080987
:10246300E637F60809E637F622E026F608A3E03653
:10247300F608A3E036F608A3E036F622E026F008D5
:10248300A3E036F008A3E036F008A3E036F022C359
:10249300E697F60809E697F60809E697F60809E6C7
:1024A30097F622C3E0C696F608A3E0C696F608A3FD
:1024B300E0C696F608A3E0C696F622C3E096F008B7
:1024C300A3E096F008A3E096F008A3E096F022E0DC
:1024D30056F608A3E056F608A3E056F608A3E0561E
:1024E300F622E056F008A3E056F008A3E056F00801
:1024F300A3E056F022E046F608A3E046F608A3E080
:1025030046F608A3E046F622E046F008A3E046F0CC
:1025130008A3E046F008A3E046F022E0F608A3E0B3
:10252300F608A3E0F608A3E0F622E6F008A3E6F037
:1025330008A3E6F008A3E6F022E0FAA3E0FBA3E099
:10254300FCA3E0FD22EAF0A3EBF0A3ECF0A3EDF093
:1025530022E0F8A3E0F9A3E0FAA3E0FB22E8F0A36A
:10256300E9F0A3EAF0A3EBF022CAC0E0E6F0A30887
:10257300DAFAD0E0FA22CAC0E0E0A3C582CCC58271
:10258300C583CDC583F0A3C582CCC582C583CDC524
:1025930083DAE6D0E0CA22C3E498F8E499F9122575
:1025A300DB8026C3E49AFAE49BFBE920E7E91225E2
:1025B300DBE498F8E499F922C3E498F8E499F91272
:1025C30025DBE498F8E499F9C3E49AFAE49BFB2247
:1025D300EB20E7CFE920E7E0B90010BB0008E88A69
:1025E300F084F8AAF022E4FBC8FA22EB70227B10F5
:1025F300C833C8C933C9335007C39AC3DBF2800653
:102603009A50012ADBEAC833F4C8C933F4C9FA2261
:1026130075F008E4C833C8C933C933C99AC99B5094
:1026230004C92AC93BD5F0ECFBC833F4C8E4C9FAA2
:1026330022600D08C6A2E713C618C613C6D5E0F379
:1026430022600C08C6C313C618C613C6D5E0F4220D
:10265300700422600D18C6C333C608C633C6D5E05E
:10266300F41822251810AF08F518400C1519800826
:10267300F51840021519D2AF2200C0D0251810AFAB
:1026830008F518500C05198008F51850020519D2E1
:10269300AFD0D0222518F58210AF08F518400C15DD
:1026A300198008F51840021519D2AF851983222520
:1026B30018F582E43519F583222518F8E43519F95C
:1026C300222518FAE43519FB222518FCE43519FDF7
:1026D30022E4732518C582C0E0E51934FFC583C021
:1026E300E0E518C3958224F810AF08858319858225
:1026F300188008858319858218D2AFCEF0A3E52010
:10270300F0A37808E608F0A3DEFAEFF0A3E581244E
:10271300FAF8E608F0A3E608F0A3E608F0A3080831
:10272300E608F0A3E608F0A315811581D0E0FED0FA
:10273300E0F8158115811581E8C0E0EEC0E022259F
:1027430018C582C0E0E51934FFC583C0E0E518C3AE
:10275300958224F910AF088583198582188008852E
:102763008319858218D2AFCEF0A3E520F0A37808B1
:10277300E608F0A3DEFAEFF0A3E58124FBF8E60810
:10278300F0A3E608F0A30808E608F0A3E608F0A320
:1027930015811581D0E0FED0E0F815811581E8C0E0
:1027A300E0EEC0E022851983851882E0A3FEE0A352
:1027B300F5207808E0A3F608DFFAE0A3FFE0A3C062
:1027C300E0E0A3C0E0E0A3C0E0E0A3C0E0E0A3C07A
:1027D300E010AF08858218858319800885821885E3
:1027E3008319D2AFD083D082020111851983851852
:1027F30082E0A3FEE0A3F5207808E0A3F608DFFA61
:10280300E0A3FFE0A3C0E0E0A3C0E0E0A3C0E0E0FA
:10281300A3C0E010AF0885821885831980088582DC
:1028230018858319D2AFD083D08222C0D02518C592
:1028330082C0E0E51934FFC583C0E0E518C3958283
:1028430024F310AF088583198582188008858319BE
:10285300858218D2AFC8F0A3E9F0A3EAF0A3EBF0A6
:10286300A37908E709F0A3D8FAECF0A3EDF0A3EEFF
:10287300F0A3EFF0A3D0E0F0A3D0E0F0A3D0E0F01A
:10288300A3E520F0A3E5F0F0A32285198385188240
:10289300E0C0E0A3E0F9A3E0FAA3E0FBA37808E03B
:1028A300F608A3DFFAE0FCA3E0FDA3E0FEA3E0FF4C
:1028B300A3E0C0E0A3E0C0E0A3E0F5D0A3E0F520EF
:1028C300A3E0A3F5F010AF0885831985821880086B
:1028D300858319858218D2AFD082D083D0E0F8D017
:1028E300E03274048006740280027401C0E0F404D0
:1028F300122697D0E012256C22740480047402809F
:1029030000CCC0E0EDC0E0E518C39CCCAD1950018C
:102913001D10AF068C188D1980068C188D19D2AF37
:10292300122579D0E0FDD0E0FC22D083D082C5F01F
:10293300E493A3C5F0C395F0F5F0E493A3C395F036
:102943004005E5F0048001E475F002A42582F582D8
:10295300E5F03583F583E493A3C0E0E493C0E0227C
:10296300D083D082E9C0E0E493A3C386F0C5F09599
:10297300F0F908E493A386F0C5F095F0700BE493A7
:10298300A3C3994005E9048002A3E475F002A425DA
:1029930082F582E5F03583F583D0E0F9E493A3C0B3
:1029A300E0E493C0E022D083D082ECC0E0EDC0E04D
:1029B300E493A3FCE493A3FDED4C600D1229F5EC25
:1029C30024FFFCED34FFFD80EFE493A3FCE493A329
:1029D300FDED4C600D122A34EC24FFFCED34FFFDB9
:1029E30080EFD0E0FDD0E0FCE493A3C0E0E493C02B
:1029F300E022C0E0C3E49396087401939618400F55
:102A0300E49366700808740193661870007019A344
:102A1300A3C3E49396087401939618A3A3400DD01F
:102A2300E0D0E0D0E00229E5A3A3A3A3A3A3D0E0D1
:102A330022C0E0C0F088F0E4936670080874019344
:102A430066187000A8F0A3A3700BD0F0D0E0D0E01C
:0C2A5300D0E00229E5A3A3D0F0D0E022DF
:102A600074F5122742EAFEEBFFEE2434F8EF34004F
:102A7000F988088909EE2435122BBAF8EE243712AA
:102A80002BBAF50AEC850AF0A4FCAAF0850AF0ED51
:102A9000A42AFDE82CF8E43DF97A257B001225DB19
:102AA000EA850882850983F05407F87401B80002AA
:102AB0008004C333D8FCC0E0E0131313541FF8EEB6
:102AC00028F8EF3400F9E8245DF582E93400F58355
:102AD000D0E0F8E0586008EE2434F582EF8019EE7B
:102AE0002436122BBAF5F0EA84A8F0EE28F8EF3479
:102AF00000F9E82438F582E9122BBDF97F0402279A
:102B0000EE74F71227428A088B09EA2434F582EB27
:102B1000122BBDC0E0EA2435F582EB3400F583D0FA
:102B2000E0F08A828B83A3A3A3A3A3A3A3C082C044
:102B3000838A828B83A3A3A3A3A3E0F8A3E0F9D0A5
:102B400083D082E0C398FEA3E099FFEA2480F58257
:102B5000EB122BBD6401704FEA2481F582EB340047
:102B6000F5831229008A828B83A3A3A3A3A3A3A323
:102B7000E0FCA3E0FD8A828B83A3A3A3A3A3E0FAD6
:102B8000A3E0FB122BC3740212267CE960197CF2CD
:102B90007D04AA08AB09121329E5082480F582E513
:102BA000093400F583E4F0EEFCEFFDAA08AB09124E
:102BB0002A601234427F020227EEF582EF3400F5DC
:102BC00083E022C082C083851882851983E0F8A340
:102BD000E0F9C3EA9CEB9D500BC3EC98ED994012D1
:102BE00079018010C3EA98EB9940F5C3EC98ED9910
:102BF00050EE7900D083D08222EAC39CFAEB9DFB91
:102C0000220000008521878522C622C0E074F212CE
:102C1000282E759B00906182E0A2E6503DE591A2CE
:102C2000E650377591BF9003BFE064057008121439
:102C3000DF1214EB80031214E5752100121557E919
:102C40009003C0F079001215391212817A017B00CD
:102C50009003BEE0F91218338049E0A2E55024E564
:102C600091A2E5501E7591DF9003BFE0640D7013D3
:102C70009003E0E004F064287002E4F07A00E0F9E8
:102C80001215F9906181E0A2E35009E5E9A2E35051
:102C90000375E9F7A3E0A2E75009E591A2E7500325
:102CA00075917F7F0102288DC0E0C0D0C082C083B3
:102CB000906183E0A2E05009E5BFA2E0500375BF38
:102CC000FEE0A2E15009E5BFA2E1500375BFFDE0BF
:102CD000A2E25009E5BFA2E2500375BFFBE0A2E308
:102CE0005009E5BFA2E3500375BFF7E0A2E4500925
:102CF000E5BFA2E4500375BFEFE0A2E55009E5BFD0
:102D0000A2E5500375BFDFE0A2E65009E5BFA2E6E9
:102D1000500375BFBFD083D082D0D0D0E032C0E0A6
:102D200074F212282EE5A7A2E6500FE5A1A2E65004
:102D30000953A7BF75A1BF122D70E5A7A2E5500CDE
:102D4000E5A1A2E5500653A7DF75A1DFE5A7A2E143
:102D50005009E5A1A2E1500375A1FDE5A7A2E2504B
:102D60000CE5A1A2E2500653A7FB75A1FB022CA320
:102D700074F81227427521019003BFE064067015B4
:102D80001214498A828B83A3A3A3A3A3A3E0FAA36B
:102D9000E0FB1214CDA2AFE433FED2AF9003C4E047
:102DA000640170187A207B009003BEE0F91218C30A
:102DB0007A207B009003BEE0F9121839906182E01E
:102DC000D2E6F085C62280169003C3E06401700845
:102DD000E5C654F84405F5C653BEFC122C04740134
:102DE000652160E453BEFCEEA2E092AF7F010227B2
:102DF000EE0000008E238F24858228858327851886
:102E000082851983E0CEA3E0CF852882852783EBD6
:102E1000C9EAC8EDCBECCA75F010C3E833C8E93392
:102E2000C9EA33CAEB33CBC3EA9EF526EB9FF525FF
:102E3000B35004AB25AA26EC33CCED33CDD5F0DA74
:102E4000AE23AF242274F112274274F21226667464
:102E5000061226B2ECF0A3EDF0EAFEEBFF9003BF02
:102E6000E024F7C394055006908212022FDE12145C
:102E700049851882851983EAF0A3EBF085188285CD
:102E80001983E0F8A3E0F9E8497003022FDBEEFCB8
:102E9000EFFD74081226B2AA82AB831214FD123021
:102EA00004780812251E90825678081224D27402E3
:102EB0001226B2780812252D74081226B2780C1248
:102EC000251E908256780C1224D274021226B278F3
:102ED0000C121C8F402974021226B2780812251E8B
:102EE0007808790C12249285080C85090D850A0E44
:102EF000850B0F9081E2780C121C8F404180478532
:102F00000C08850D09850E0A850F0B74021226B276
:102F100078081224A69081E27808121C8F501F7541
:102F20000800750900750A00750B017808790C1204
:102F3000249274021226B2780812246C80089082BF
:102F400012780812251E750C19750D00780C1228C0
:102F5000E97409780812243AFAAB09AC0AAD0B12ED
:102F60002DF4740212267C8A0C8B0D8C0E8D0F743E
:102F700010780C122421123004A3A3A3A3122FFA59
:102F80001225DB88088909E4F50AF50B780C790825
:102F9000122459740C1226B2122FFA1225DBE8FA09
:102FA0008A08E4F509780C7908121C6F5007780C30
:102FB00079081224929003BFE06408600AE0640676
:102FC0006005E06405701C9081E6780C121C8F503F
:102FD000129081EA780C12246C800890826E780C32
:102FE00012251E74061226B2123010780C12252DEE
:102FF000740E12267C7F080227EEE0F8A3E0F97A2F
:10300000D07B0322851882851983123010A3A32256
:10301000E0F8A3E0F58388822274F71227421215A4
:103020000F1214BBE5C654804449F5C6E59E547F93
:10303000644970F8906185740FF0900562E0F47057
:1030400002A3E0604E900563E0600814601B14600A
:103050002E8040750801750900900562E07808121D
:103060002653E508F45280802A75080175090090FE
:103070000562E07808122653E508F4529080147532
:103080000801750900900562E07808122653E508EA
:10309000F452A079007F020227EE74F7122742E96A
:1030A000FE90345CE493F46008E493F912126380B8
:1030B0000953C680E59E547F70FA1214C1900562D0
:1030C000E0F47002A3E0604B900563E060081460D8
:1030D0001A14602C803D750801750900900562E0A6
:1030E0007808122653E50842808028750801750982
:1030F00000900562E07808122653E508429080139C
:10310000750801750900900562E07808122653E5FC
:103110000842A012150F1214498A088B09A808A9A1
:1031200009E8496015E5E170FCE82414F582E9340A
:1031300000F583E0F46003E0F5E174016E700A7A53
:10314000019003BEE0F912188D02309574F1122738
:10315000428A0C8B0D8C0E8D0F740F1226B27808DC
:1031600012251E908256780C1224D290825678082E
:103170001224D2780C7908121C6F5015780C79083B
:103180001224929081EE780C121C8F4015790180E8
:10319000137808790C1224929081EE7808121C8F13
:1031A00040EB79007F080227EE74F112274274FC8D
:1031B000122666851882851983EAF0A3EBF0A3EC4A
:1031C000F0A3EDF074131226B2780812251E908237
:1031D00056780C12251E851882851983780C1224C6
:1031E000E590825678081224D28518828519837852
:1031F00008121C7F4014851882851983780C1225CB
:103200001E780C7908122492801E750C00750D0032
:10321000750E00750F01780C7908122492851882BA
:10322000851983780C12246CAA0CAB0DAC0EAD0F73
:10323000740412267C0231A474F11227428A0C8B8A
:103240000D8C0E8D0F740F1226B2780812251E9069
:103250008256780C1224D290825678081224D278A2
:1032600008790C121C6F4011780C7908122492AA6C
:103270000CAB0DAC0EAD0F800F7808790C122492B8
:10328000AA08AB09AC0AAD0B0231A49082567808AB
:1032900012251E8A828B8378081224E57F04022778
:1032A000EE74F51227428C828D83780812251E8ACF
:1032B000828B8378081224BE1232F9C3E09CF0A3FB
:1032C000E09D1232EB4022908242780812251E8A3D
:1032D000828B83780812247F8A828B83A3A3A3A383
:1032E000E02420F0A3E0344EF080A0F088828983AF
:1032F000C3E09420A3E0944E22EA2404F8EB3400C7
:10330000F98C828D83A3A3A3A3E0FCA3E0FD8882B4
:1033100089832274F5122742E9FE7A007B00900728
:10332000A9E064017008900508E0FAA3E0FBEEC391
:1033300033F8E433F9745028F582748139F583E069
:103340002AF508A3E03BF50978081228E99082766F
:1033500012253C122DF4740212267C8A088B098CEB
:103360000A8D0B74107808122421AA08AB097F0477
:103370000227EE74F11227428A0C8B0D8C0E8D0FF2
:10338000740F1226B2E0FAA3E0FB74111226B2E029
:10339000F508A3E0F50974131226B2E0FEA3E0FFDE
:1033A00078081228E9123437E4F50AF50B780C791D
:1033B0000812238D9081FA780812251E780C79085E
:1033C00012238DAA0CAB0DAC0EAD0F122DF47402AE
:1033D00012267C8A088B098C0A8D0B8B0DEA450D11
:1033E00060047A0180027A0074107808122421ECBB
:1033F0002AFCED3400FDECF8EDF97A717B02122520
:10340000DB880889098E828F83780812252DECF8D5
:10341000EDF97A717B021225DB12343774057808D6
:103420001226538E828F83A3A3A3A3E508F0A3E5FE
:1034300009F07F080227EEEA2401F508EB3400F5D5
:103440000922C082C083E9906000F0D083D082223C
:0A345000C0D0C2C753BEFCD0D0327A
:10345C00FFFFFFFFFFFFFFFFFFFFFFFFC082C083E7
:10346C00E9900A32F002367E74F71226D6E9900201
:10347C00DDF07C157D037AFF7BFF120E739002DE6C
:10348C0074FFF0A3F0A3E4F0A3F07905120E019001
:10349C0002DDE0F9120D297A8B7B0E1211310243F9
:1034AC00D674F41226D6EAFEEBFF5480602C900200
:1034BC00DDE0F912181B8A088B09EA450960138AAA
:1034CC00828B83E064B07003120E13AA08AB09124E
:1034DC001803EEFAEF6480FB80047A007B007F0413
:1034EC000227A874F21226D674FC122666EAFEEBAA
:1034FC00FF74121226B2123C69EE4F700302359221
:10350C0074021226B2EEF0A3EF124C648518828579
:10351C001983AA82AB83120D23E9F50A706BE508B7
:10352C00450960658E828F83124D5BEE4F60577A32
:10353C00067B001218758A0C8B0DA80CA90DE84996
:10354C007005750A13804288828983E4F012359ADB
:10355C00A3EEF0A3EFF088828983124B589002E31C
:10356C001236229002E37005124C74801CE0FCA30E
:10357C00E08003EAFCEBFD8C828D8312362270F323
:10358C008C828D8380E2750A02A90A024461A3121F
:10359C00359F22F088828983A32274F21226D68961
:1035AC000AE975F017A4FEAFF09002E2E4F0900285
:1035BC00E0123622600A12187B9002E0E4F0A3F0CD
:1035CC00EEFAEFFB1218758A088B09EA4509602B95
:1035DC00EEFCEFFD79001217F19002E0124B5C7BD0
:1035EC0000800812360CE4F0A3F00BEBC3950A40F4
:1035FC00F2E50A9002E2F079008002791302446647
:10360C00EB75F017A4F8A9F09002E0E028FAA3E01B
:10361C00398A82F58322124366EA4B2274F412260D
:10362C00D67900EAA2E0501B7508B87509817808B4
:10363C001228E97C047D007A347B0A120DFB74029B
:10364C0012267C0234EAC082C0839002E3123685D3
:10365C00601C88828983A3A3E06A7003A3E06B8853
:10366C0082898370E8A3A3A3A312436280047A0027
:10367C007B00D083D082020111124A6AE84922747D
:10368C00F01226D674FC1226668A088B09851882DD
:10369C00851983E4F0A3F0EA2402F50CEB3400F571
:1036AC000D123D9D8A828B83A3A3A3A3E024FE600D
:1036BC003924FC604624FE605224FE605E24FE70B9
:1036CC00030237A324FE700302382524FE70030284
:1036DC00383424FE700302384324FC700302385241
:1036EC0024FE70030238610238A59002FC7417F0B6
:1036FC00A3E41238B4120AAD0238A58518828519D4
:10370C0083AC82AD83120E1902386E85188285192E
:10371C0083AC82AD83120E1F02386E74021226B275
:10372C00AC82AD83850A82850B831240FC8A0E8B9A
:10373C000FAC0EAD0FEC4D604CE4F50EF50F780EA2
:10374C001228E9750EFC750F02780E1228E9750E19
:10375C00FD750F02780E1228E974081226B2122990
:10376C00007916850C82850D83124C5B12267CE940
:10377C00FF70147CFC7D02850C82850D83124362E4
:10378C00120AC5800E7F01850A82850B831238A828
:10379C00124C74EF02386F850A0E850B0F740212EF
:1037AC0026B2AC82AD83850E82850F831240FC8AD3
:1037BC000A8B0BAC0AAD0BEC4D604D850E82850F60
:1037CC0083A3A3122900750AFC750B02780A122830
:1037DC00E9750AFD750B02780A1228E9740812269D
:1037EC00B21229007916850C82850D83124C5B125E
:1037FC00267CE9FF70147CFC7D02850C82850D8390
:10380C00124362120ACB808B7F01850E82850F8357
:10381C001238A8124C7402379F851882851983AC14
:10382C0082AD83120E25803A851882851983AC826D
:10383C00AD83120E2B802B851882851983AC82AD3B
:10384C0083120E31801C851882851983AC82AD835E
:10385C00120E37800D851882851983AC82AD8312C8
:10386C000E3DE9FEEE6032850882850983A3E06493
:10387C00146026850882850983A3A3A3A3E0900284
:10388C00FCF0851882851983124A669002FD124C51
:10389C0074EEA31238B4120AA7023AA0E0F8A3E01F
:1038AC00F985188285198322F07CFC7D02850C82B7
:1038BC00850D831243662274F01226D674FA1226F2
:1038CC006674041226B2124109F508EB3400F509AE
:1038DC007C157D0079007AFC7B021217F1E5082437
:1038EC000212423085188285198385820C85830DDE
:1038FC00780C1228E985088285098312492112283F
:10390C00E9E5082405F50CE5093400F50D780C12F1
:10391C0028E9124938850882850983123FBE122690
:10392C007C8A0C8B0DAE0CAF0DE50A2402F50AE572
:10393C000B123DA3EE4F7003023A798015740212FC
:10394C0026B212436288828983123FF99002FCE00E
:10395C0004F09002FCE0C394054003023A79E4F5CC
:10396C000CF50D780C1228E9750CE5750D02780C28
:10397C001228E9750CE6750D02780C1228E974060C
:10398C001226B21229007910EEFCEFFD850A828511
:10399C000B83124C5B12267CE9705C8508828509CE
:1039AC0083A3A3A3A3A3A3A3E0F89002E5E068700C
:1039BC00461249251228E97CE67D02E5082408FA1E
:1039CC00E5093400FB1217EB740212267CE9602720
:1039DC008E828F83A3A3A3A31243629002FCE0F513
:1039EC000C7402780C12265374FD250CF5827402AB
:1039FC00350DF583123FF974021226B285820C85BF
:103A0C00830D780C1228E974021226B212290012C6
:103A1C004938EEFAEFFB120D4D740412267C8A0C19
:103A2C008B0DAE0CAF0D9002FCE0F50C750D007417
:103A3C0002780C12265374FC250CF87402350DF91F
:103A4C0088828983A31236227003023940E824034A
:103A5C00080808E93400F9EE4F60030239498882FE
:103A6C00898374FFF0A3F09002FCE004F09002FC58
:103A7C00E0600A124358120AB97900801385088253
:103A8C00850983124A6674041226B2124C71790AA3
:103A9C0074068002740412267C7F080227A874F036
:103AAC001226D674F812266674021226B2123FF948
:103ABC0074061226B212425B74021226B2E024057E
:103ACC00F8A3E012434E124C7485188285198312A8
:103ADC004381F508A3E0F5097E007F0074041226EB
:103AEC00B285820A85830B780A1228E974021226A1
:103AFC00B212490DF50A750B00780A1228E9740404
:103B0C001226B2E02405F50AA3E0123DA3780A12AE
:103B1C0028E974061226B21248EC123C71120D41BF
:103B2C00740612267C8A0C8B0DEA450D7003023C40
:103B3C000EEA2404123C3A123C698A828B83A3A3BA
:103B4C00A3E0F974021226B2123FE56003023C0EA8
:103B5C00E4F50AF50B780A1228E9750AE5750B02EB
:103B6C00780A1228E9750AE6750B02780A1228E918
:103B7C00740A1226B21229007913AC0CAD0D740A1A
:103B8C001226B2124C5612267CE9FF70759002E593
:103B9C00E0F8EE7009E024029002FDF0801490022F
:103BAC00FDE0FCE82402FAE43400FBEA6C7001EB63
:103BBC0070538E82AA82123DA89414123D955042E5
:103BCC00850E82850F83E0C0E0123FA3D0E0123F48
:103BDC00EEC0E0123FAFD0E0123FFF1228E9123CDA
:103BEC004612267C9002E5E02EFE74FF65087004F8
:103BFC0074FF6509600C123C5CEEC3941450030214
:103C0C003AE8EE6012123FC774021226B2123FD885
:103C1C00120ABF79008012EF70027F0A7406122616
:103C2C00B21248EC124B5CEFF97408023AA2F50E92
:103C3C00EB124234850E82F583227CE67D028E0ADD
:103C4C0074FE250AFA74023400FB1217D97402228E
:103C5C00E5082401F508E5093400F50922E0F5082A
:103C6C00A3E0F50922A3A3E0FCA3E0FDAA08AB099D
:103C7C002274F01226D674FC12266674021226B236
:103C8C0012425BEA2405F50EEB1242347F009002DF
:103C9C00FCE4F0FEEA2402123DA080489002FCE015
:103CAC00FA9002E5E0F8123DA89417123D95400DEC
:103CBC009002FCE0F87416C3989002E5F0E0F50869
:103CCC0075090078081228E97CE67D0274FD2AFA51
:103CDC007402123C5312267C9002E5E0F89002FC30
:103CEC00E028F00EE50E2416F582E50F3400F5837E
:103CFC00E0F8EEC3984003023D8A9002FCE0C394C6
:103D0C0016507BEEC333F8E433F9E50E28F508E5DD
:103D1C000F39F509851882851983AC82AD83850826
:103D2C0082124251AC0CAD0DEC4D70137F01850825
:103D3C00828509831240F61226B2124C718045E43A
:103D4C00F50CF50D780C1228E9750CE5750D02785B
:103D5C000C1228E9750CE6750D02780C1228E97422
:103D6C00061226B21229007916850A82850B831257
:103D7C004C5B12267CE9FF7003023CA880B0124316
:103D8C0058120AD1EFF9023AA0E99400C365D03376
:103D9C0022EA2405F50AEB3400F50B22EA28F8E4B4
:103DAC003400F9E82274F01226D674F812266685CF
:103DBC001882851983123FF974061226B212425BDF
:103DCC00851882851983E02405F50CA3E03400F5F1
:103DDC000D7E007F0074041226B28582088583094B
:103DEC0078081228E9850C82850D83A3A3A3A3E090
:103DFC00F5088E0978081228E9E50C2405F508E584
:103E0C000D3400F50978081228E9850C82850D839C
:103E1C00A3A312493E850C82850D83123FBE122648
:103E2C007C8A088B09801F8882898374FFF00E12AC
:103E3C003FAF74FF123FFF1228E9123C4612267C5A
:103E4C009002E5E02EFEE50845096029850882858B
:103E5C000983A3A31238AA123FE5E50824041242F1
:103E6C0030EF602B850E82850F83124A6674061222
:103E7C0026B2124C71EE7003023F88123FC78518B0
:103E8C0082851983123FD8120AD77900023FA0E429
:103E9C00F50AF50B780A1228E9750AE5750B027814
:103EAC000A1228E9750AE6750B02780A1228E974D9
:103EBC000A1226B21229007911AC08AD0974081245
:103ECC0026B2124C5612267CE9FF70988E82AA827A
:103EDC00EE9002E57009E024049002FDF08025E0EC
:103EEC00F89002FDE0F50AE82404FCE43400FDEC53
:103EFC00650A7001ED7084123DA89412123D954034
:103F0C0003023E87850E82850F83E0C0E0123FA33B
:103F1C00D0E0123FEEC0E0123FAFD0E0F00E7402E2
:103F2C001226B285820A85830B780A1228E9740658
:103F3C001226B2122900850C82850D83123C711257
:103F4C000D4D740412267C8A088B098E0A74FE258A
:103F5C000AF874023400F9EA45097003023E33741E
:103F6C00021226B2E088828983F00E74021226B205
:103F7C00A3E0C0E0123FAFD0E0023E40EF70027F02
:103F8C000A850C82850D83124A6674061226B212BB
:103F9C004C71EFF9023C3574FE2AF5827402340040
:103FAC00F583228E0A74FE250AF58274023400F51C
:103FBC008322124366120D417406229002FDE0F535
:103FCC00F0EE849002FCF07CFC7D0222123FDC229D
:103FDC00124C50E0FAA3E0FB22123FDC120D2FE949
:103FEC00FF22F00E850E82850F83A3E022EAF0A358
:103FFC00EBF022F00E9002E51249562274F01226D4
:10400C00D674FC12266674021226B2124109FEEB1B
:10401C003400FF851882851983AC82AD838E828F24
:10402C00831240FC8A088B09EA450970030240C6DA
:10403C00E50A2402F50EE50B1242348A828B83A327
:10404C00A3A3E0A2E5502285188285198312491397
:10405C0060637912AC08AD09850E82850F83124915
:10406C002E1226D4E9F5087056E4F508F5097808FF
:10407C001228E98E828F83A3A3E0F5087808122812
:10408C00E9EE2403F508EF3400F50978081228E965
:10409C008E828F8312493E12436C12267CE9F508FE
:1040AC00701D1240EA7029850E82850F83124362BF
:1040BC00120ADD801B75080E80097508018004E565
:1040CC0008600D8E828F831240F61226B2124C714C
:1040DC001240EA600479008002A908023AA0EE249A
:1040EC0018F582EF3400F583E022124A6A7402223A
:1040FC0012410022E0FAA3E0FB120D4722ECF0A3E0
:10410C00EDF08A0A8B0BEA24052274F01226D67481
:10411C00FC12266674021226B212425B8A0E8B0FB8
:10412C00123D9D750800851882851983AC82AD837C
:10413C00850A82124251AE0CAF0DEE4F7003024253
:10414C0019E50E2402F50EE50F1242348E828F8390
:10415C00A3A3A3E0A2E5502F8518828519831243EF
:10416C0062120E4F8A088B09EA450960427912EEF9
:10417C00FCEFFD850E82850F831242471226D4E98F
:10418C00F508600302421C850E82850F83124D5F79
:10419C00EEFAEFFB12423970127AFF7BFF124239B2
:1041AC00606688828983EEF0A3EFF07E008006754E
:1041BC00080E805C0E9002E2E0FAEEC39A5049EED3
:1041CC0075F017A4FAABF088828983A3A3E02AFACE
:1041DC00A3E03BFB8A828B8312493EEC4D70D57574
:1041EC000C17750D00780C1228E9AC0AAD0B1217E0
:1041FC00D9740212267CAC0AAD0B850E82850F8316
:10420C00124362120AE380177508098003750801CE
:10421C00850A82850B831240F61226B2124C71A9C4
:10422C0008023AA0F50EE5093400F50F22120E43F0
:10423C008A0C8B0DA80CA90DE8492212436685083F
:10424C008285098322F5831241008A0C8B0D22ECA6
:10425C00F0A3EDF02274F01226D674FC12266674CC
:10426C00021226B212425BEA2405F8EB12434E12FC
:10427C004C74750900EA2402123C3A124362124C47
:10428C00F1700302433D750800806E851882851914
:10429C00831243816401704A8E828F83A3A31229F7
:1042AC00008E828F831249211228E9EE2405F50C29
:1042BC00EF3400F50D780C1228E912436C12267CB1
:1042CC00E9F509601D8518828519831248ECE4F024
:1042DC008E828F8312436274021226B21248EC1241
:1042EC003FF97C177D007900EEFAEFFB1217F18E87
:1042FC00828F83E4F0A3F005089002E2E0F8E50871
:10430C00C398501EE50875F017A4F8A9F0850A8229
:10431C00850B83A3A3124C3B12493EEC4D60030268
:10432C004297850A82850B8374FFF0A3F0E5097030
:10433C000C850E82850F83124362120AE9A90902C9
:10434C003AA03400F9851882851983227CFC7D0201
:10435C00850A82850B8312436622E0FAA3E0FB22D6
:10436C00850E82850F83124366120E6174062285B8
:10437C000A82850B831248F0E022C082C08390022F
:10438C00DEE06A7003A3E06B70067ADE7B028004C9
:10439C007A007B0002367E74F71226D67F00EF750A
:1043AC00F003A4F8A9F0EC28F8ED39F98882898398
:1043BC00E06A7003A3E06B7006E8FAE9FB800B0F70
:1043CC00EFC3940240D87A007B007F010227A874C7
:1043DC00F61226D6124A0770067A007B008007A3D5
:1043EC00A3A3A3124362024AD474F21226D6E9FEA6
:1043FC00740E1226B2E0F50AA3E0F50B7410122627
:10440C00B2E0F50CA3E0F50D8C828D83E0640270B4
:10441C0040124A6588828983E0F508A3E0F9A80870
:10442C007402687003742969702775080275090095
:10443C0078081228E9850C08850D0978081228E9F6
:10444C00780A1228E9EEF9120E85740612267C8081
:10445C000279018005740412267C7F060227A87459
:10446C00F01226D674F612266674061226B2123F85
:10447C00F974021226B212425B74011226B2E9F0F0
:10448C00741C1226B2123C6974201226B2124D5FB3
:10449C00851882851983E4F074021226B2124C47F7
:1044AC00E0A2E4502F741A1226B2124913700302C0
:1044BC004598790A74021226B212493E74061226E5
:1044CC00B212492E1226D4E9851882851983F06020
:1044DC00030245A174021226B212438164026003E6
:1044EC0002487F74021226B2A3E0F5838882124A36
:1044FC0065850882850983A385820E85830F7402E6
:10450C001226B2E02406F50AA3E0123DA3888289A4
:10451C0083E0FAA3E0F9EA2400F50CE439F50D7810
:10452C000C1229A90100002801285845070002286F
:10453C0050460328B84500298B470129B347022967
:10454C00534703298B4704291C487F48EE4F705270
:10455C00850A82850B83124A66E8FAE9FB8A828B0C
:10456C0083E0C0E0741E1226B21248ECD0E012496F
:10457C004D1228E98A828B83A3E0FCA3E0FDAA08F4
:10458C00AB091217D9740212267C80098518828512
:10459C001983740EF0851882851983E0F9740A0268
:1045AC003AA2851882851983740B80E8EE4F70F25D
:1045BC00741E1226B21248EC7401F012437B85086B
:1045CC0082850983F07C007D0074021226B21249A8
:1045DC000D2401FAA3E03400FB120D47EA4B6049AD
:1045EC008A828B83E02402F8741E1226B2E0F9A3AF
:1045FC00E0F5838982E028F0EA2404F8EB3400F932
:10460C0088828983E0850E82850F8312495F124967
:10461C004D1228E98A828B83A312493EE5082403B4
:10462C00FAE5093400FB02458E741E1226B21243C1
:10463C00812404F07C047D007900AA0EAB0F1217C4
:10464C00F10245A1EE4F60030245AE12437BFEA37F
:10465C00E0FF741E1226B21248EC7404F0EE8508CA
:10466C0082850983F0EF850E82850F83F074081222
:10467C0026B2AC82AD83EEFAEFFB120D478A0A8BA1
:10468C000BEA450B70030247318A828B83A3A3127A
:10469C004D5B74041226B285820C85830D780C1246
:1046AC0028E9740A1226B21229007CFF7DFF120D34
:1046BC004D740412267C8B0DEA450D7033850A82ED
:1046CC00850B831249251228E9850A82850B83A361
:1046DC001229007C027D007AC07B82120B85740447
:1046EC0012267CE9700A74041226B274FFF0A3F04F
:1046FC008E828F83E064027036750A02750B007827
:10470C000A1228E98E828F83A312493EE5082404FD
:10471C00FAE509123C5312267C741E1226B212437F
:10472C00812402800974041226B2EEF0A3EFF07417
:10473C00041226B21248E2F074041226B2A31248F4
:10474C00DAA3A3A30245A0EE4F60030245AE850A8F
:10475C0082850B8312493E74061226B212436212F2
:10476C000E798A0A741E1226B21248FDE50A8508D3
:10477C0082850983F0850E82850F83EB0245A0EEBE
:10478C004F60030245AE12437BF8A3E0F9741E128E
:10479C0026B21248FDE8850882850983F0E9850E6A
:1047AC0082850F830245A012435C1217D3EAFC8C5E
:1047BC0082A882C39EE49F404CE86E7001EF7004A7
:1047CC007C00801E74011226B2E0FAEE2AFAEF3455
:1047DC0000FBC3EA98EB94005003E08004EECCC3DA
:1047EC009CFC741E1226B21248ECECF08C0C750D6D
:1047FC0000780C1228E9850A82850B83E02EFCA335
:10480C00E03F02458985188285198374070245A00B
:10481C00EE4F60030245AE850A82850B83124A6611
:10482C00741E1226B21249047407F088828983120E
:10483C0048DA12359BE0850E82850F83F0E824025E
:10484C00FAE93400FB8A828B831248DA124944124B
:10485C0048E212359AA3A3A31248E6F0E82405F81F
:10486C00E93400F9888289831248E6A312495FA3D0
:10487C0002474D741A1226B2124A00700302459870
:10488C00124A66880A890BE8450B70030245988E1C
:10489C000C8F0D780C1228E974201226B212290004
:1048AC0078081228E974071226B2E0F97408122667
:1048BC00B212493E740C1226B212492E1226D4742E
:1048CC000612267CE98518828519830245A0E085AD
:1048DC0008828509832212496622124966A3A32203
:1048EC001248F0221248F422E0F8A3E0F583888203
:1048FC00221249047402F022E0FAA3E0F5838A82C2
:10490C0022124C4BA3E022124366120E4F8A0A8BE2
:10491C000BEA450B22A3A3A3A3E0F50C750D0078BD
:10492C000C22124366850A82850B8322850E8285B2
:10493C000F83E0FCA3E0FD22A3A3F08A828B83A368
:10494C0022F08A828B8312495622E0F50A750B00FD
:10495C00780A2212359F12496622E0850882850961
:10496C0083A3A32274F21226D674FC122666740258
:10497C001226B2123FF9ECFAEDFB74141226B2E0D7
:10498C00FE74161226B2E0F50AA3E0F50B85188228
:10499C00851983AC82AD83120D478A088B09EA45D1
:1049AC00096044851882851983124A006035A3A3D7
:1049BC001249F8E8450D602B780A1228E974141294
:1049CC0026B2122900EEF9AC08AD0974061226B213
:1049DC00124362850C82850D831226D47404122630
:1049EC007C8006790E80027901024461124A6A8841
:1049FC000C890D22124366124A0722120E0D8A826E
:104A0C008B83E58245832274F61226D674FE122619
:104A1C0066740C1226B2124A66E8851882851983D0
:104A2C00F074011226B2E9F0E4F508F509780812E1
:104A3C0028E975080278081228E974041226B28550
:104A4C00820885830978081228E9120E617406120F
:104A5C00267C740212267C806FA3124A6A22E0F82C
:104A6C00A3E0F92274F71226D6EAFEEBFF89087C44
:104A7C00157D03120E79EA5402600BA908EEFAEFC9
:104A8C00FB120D3B800279010243D674F61226D636
:104A9C0074FF6A700374FF6B701C7B00EB75F00382
:104AAC00A4F8A9F0EC28F8ED39F9124AD90BEBC3AC
:104ABC009402501480E6120E498A088B09A808A9A2
:104ACC0009E8496003124AD97F020227A888828923
:104ADC008374FFF0A312359FA3E4F02274F6122620
:104AEC00D6120E498A828B83E58245836006A3A386
:104AFC00E0FA80027A007B0080CE74F21226D68A0D
:104B0C00088B098C0A8D0B740E1226B2E0FE120E65
:104B1C00498A0C8B0DA80CA90DE8497022AC0AAD82
:104B2C000B7AFF7BFF120E498A0A8B0BA80AA90B82
:104B3C00E84970047911801188828983124B5CEEEC
:104B4C0088828983A3A3F07900024466A3A3A3A35C
:104B5C00E508F0A3E509F02274F01226D674FE12D3
:104B6C00266685188285198312425B8A088B09890F
:104B7C000B74121226B2124A6674141226B212491F
:104B8C003E74161226B2124362750A00EC4D600395
:104B9C00024C317402650B6003024C2C88828983B1
:104BAC00E0FCA3E0F9EC2400FEE439FFEAF4F8EBB6
:104BBC00F4F9EE58F8EF59F9E849705F85188285D9
:104BCC001983E02406F50EA3E0123C3D123C73124F
:104BDC000E798A0C8B0DEE650C7003EF650D604839
:104BEC008E0C8F0D780C1228E9850E82850F83129E
:104BFC003C73120E7F740212267CE9F50A70297838
:104C0C000C1228E974021226B21248ECA3A3123C2F
:104C1C0071120E91740212267C800D750A80800828
:104C2C00750A0D8003750A0BA90A7402023AA2E0F8
:104C3C0028FEA3E039FF8E828F8322124C4B221266
:104C4C004C50A3221248F4A3A3221248F0A3A3129F
:104C5C004366120E5B740822F0851882851983EC6A
:104C6C00F0A3EDF022124904E8F0A3E9F02274F26B
:104C7C001226D68A088B09E9FF74016F600D740245
:104C8C006F705F790112114FE97057AA08AB0912C6
:104C9C004CF160437E00800A7C177D00790012176E
:104CAC00F10E9002E2E0F8EEC3985020EE75F0178A
:104CBC00A4F8A9F0850A82850B83A3A3E028FAA3A4
:104CCC00E039FB8A828B8312368570CC850A82850B
:104CDC000B8374FFF0A3F07C157D03AA08AB0912BB
:104CEC000E73024466120E438A0A8B0BEA450B22A2
:104CFC0074F21226D68A0A8B0B8C088D09740E124C
:104D0C0026B2124D5F900A32E0F460407A097B00C3
:104D1C001217FDEA4B60358A828B8374B1F0A3E4E1
:104D2C00124946A3124944A3E50AF0A3E50B124924
:104D3C0046124B588A828B83A3A3A3A3A3A3A3EEEF
:104D4C00F0A3EFF0900A32E0F9121809024466A3BE
:104D5C00A3A3A3E0FEA3E0FF2274F41226D6E9FF7E
:104D6C007E008A088B09780812296300040D564FBF
:104D7C00984DB74DD44DF34D124E314E5E4E7D4E87
:104D8C00924EBE4ED14EF04E0E4F2F4F74016F709F
:104D9C00158C828D83E0C39403500B8C828D83E041
:104DAC00900B4AF080027E18024F7674026F7013DB
:104DBC008C828D83E0F8A3E0F9900B4BE8F0A3E92B
:104DCC00F080027E18024F7674016F70158C828D04
:104DDC0083E0C39402500B8C828D83E09007C6F065
:104DEC0080027E18024F7674016F70158C828D8351
:104DFC00E0C39405500B8C828D83E09007C7F08044
:104E0C00027E18024F7674016F70158C828D83E0D0
:104E1C00C39402500B8C828D83E09007C8F0800203
:104E2C007E18024F7674106F702375081075090088
:104E3C0078081228E97AC97B071217D9740212264E
:104E4C007C8A088B0985088285098380027E18027A
:104E5C004F7674016F70158C828D83E0C394025071
:104E6C000B8C828D83E09007D9F080027E18024F64
:104E7C007674016F700B8C828D83E0900B4EF080FA
:104E8C00027E18024F7674046F7022908276780836
:104E9C0012251E8C828D837808121C7F500F8C82F9
:104EAC008D831225549007DB12256080027E180238
:104EBC004F76EF700B1219E9E9F5081219D7800239
:104ECC007E18024F7674016F70158C828D83E0C34F
:104EDC009402500B8C828D83E09007DAF080027E76
:104EEC0018024F7674016F70158C828D83E0C39419
:104EFC000A500B8C828D83E0900B4DF0806C7E18E9
:104F0C00806874016F70188C828D83E0C39407C322
:104F1C00940A500B8C828D83E0900B4FF0804B7E6B
:104F2C0018804774016F701E90086DE0F88C828DAC
:104F3C0083E090086DF0E8703190086DE0640170CA
:104F4C00291219D780247E188020C3EA9423EB946D
:104F5C0000501574026F70108C828D83E0FCA3E0FE
:104F6C00FD120B91E9FE80027E02EEF97F0402270E
:104F7C00A874F11226D674D8122666890E8C0C8D64
:104F8C000D9081A674021226CC7406122579740237
:104F9C001226CCA90E12197DE9FE74371226B2E046
:104FAC00F508EEC3940A40030250D6EEF91219B973
:104FBC00E9FF740465086008900B4AE06402700D08
:104FCC00AD08EFFCEEF9AA0CAB0D121A2B7C147D7C
:104FDC0000790074141226C41217F18518828519F1
:104FEC0083EAF0A3EBF074141226CC7A1075F00659
:104FFC00EEA42424F9121B69E9703B7C1079FF7430
:10500C00141226C4121857E9702C74241226B2AC50
:10501C0082AD837A0475F006EEA42425F9121B697F
:10502C00E9F50974141226CCEFA2E0E433F9AA0CCA
:10503C00AB0D120C1BE974081226CC7A0C74702E72
:10504C00F9121B69E9707174081226C41219AD7E2D
:10505C0000805FEEF87900E875F003A4C8AAF0753B
:10506C00F000A42AFA75F003E9A42AF974081226B0
:10507C00B2E58228F8E58339F9E8FAE9FB8A828BF4
:10508C0083E0F8A3E0F9E84960278A828B83A3A325
:10509C00E0F50A750B00780A1228E98A828B83E006
:1050AC00FCA3E0FDAA0CAB0D120E67740212267C59
:1050BC00E90EEEC39404409BEFA2E1500D9007C59E
:1050CC00E0F9AA0CAB0D120E6DE974046508700FB3
:1050DC00900B4AE064027007AA0CAB0D121A2579EA
:1050EC0000742812267C7F070227A874F21226D699
:1050FC00890B8A088B09ECFEEDFF750A0AE50B603B
:10510C000B14600814604114605F807CAA08AB0922
:10511C001219CBE9F50AE50AC3940A506BEE4F60FD
:10512C0067750C06750D00780C1228E9AC08AD09F2
:10513C00EEFAEFFB1217D9740212267C8A088B093F
:10514C008508828509838040AA08AB091219C5E934
:10515C00F50AE50AC3940A502FEE4F602BEEFAEFD6
:10516C00FBA90A1219BFE9801FAA08AB091219D1B1
:10517C00E9F50AE50AC3940A500EEE4F600AEEFAFE
:10518C00EFFBA90A1219BFE9A90A7F060227A87426
:10519C00F41226D6E9FF7E1574FF6A700374FF6B58
:1051AC00702A7508008012EFFC7A027B00A90812A5
:1051BC00199BE960027E000508E508C3940A40E7E4
:1051CC00EF605A7A137B1A12116180511211438AC3
:1051DC000A8B0B850A08850B09E5084509603C7CA0
:1051EC00007D00E5082405FAE43509FB8508828575
:1051FC000983A3A3A3A3E0F912197DE9F9E9C394E8
:10520C000A500CEFFC7A027B0012199BE97E00EF2E
:10521C00600BAA08AB09121A1380027E14EEF97FF8
:10522C00040227A874F21226D68C088D097E1574F8
:10523C000E1226B2E0F50AA3E0F50B74FF6A7003B8
:10524C0074FF6B701D7F00EFC3940A5058AC0AAD0D
:10525C000BAA08AB09EFF91219A1E960027E000F45
:10526C0080E51211438A0C8B0D850C82850D83E52C
:10527C00824583602E7C007D00E5822405FAE435AE
:10528C0083FBA3A3A3A3E0F912197DE9F9E9C39465
:10529C000A5012AC0AAD0BAA08AB091219A1E97E8F
:1052AC000080027E14EEF97F060227A874F71226FE
:1052BC00D69007DFEAF0A3EBF09007C5E0FC7D0089
:1052CC007A227B00120B91E9FE9007C5E0F9120DD2
:1052DC00E97F010227A874F01226D674EC12266618
:1052EC00EAFEEBFF8E828F83A3A3E024FA70030205
:1052FC0057DF24FD70030256691470030253CC145B
:10530C00601024FD70030256001470030256A002B4
:10531C0057E89007DFE0F8A3E0F9E84960669007EA
:10532C00DFE0F8A3E0F5838882E0F8A3E0F9E84930
:10533C006052EE240CF582E43FF583E0F508780822
:10534C001228EDEE240BF582E43FF583E0F98E8212
:10535C008F83A3A3A3A3A3A3A3A3A3E0FCA3E0FD18
:10536C00EE2403FAE43FFB9007DFE0F8A3E0F583BB
:10537C008882E0F8A3E0F58388821226D4740112A7
:10538C00267C80398E828F83A3A3A3A3A3A3A3A37C
:10539C00A31229009007DB12253C120C2D7402126B
:1053AC00267CE9601879018E828F83A3A3A3A3A323
:1053BC00A3A3A3A3E0FAA3E0FB120C27E90257E88E
:1053CC008E828F83A3E060030255AE8E828F83A3FF
:1053DC00A3A3A3A3E0A2E040030255AE7C0E7D0084
:1053EC007900AA18AB191217F18A088B09AA08AB15
:1053FC00098E828F83A3A3A3A3A3A3A3A3E0F8A3E3
:10540C00E0F9E84960497508067509007808122822
:10541C00E98E828F83A3A3A3A3A3A3A3A3E0241049
:10542C00FCA3E03400FD74021226C41217D97402D6
:10543C0012267C8A088B098508828509838E828FC7
:10544C0083A3A3A3A3A3E0A2E2504DD2F0804B8E82
:10545C00828F83A3A3A3E0FAA3E0FB1211438A0873
:10546C008B09AA08AB09EA4B602B75080675090075
:10547C0078081228E9EA2405FCE43BFD74021226A4
:10548C00C41217D9740212267C8A088B09850882EB
:10549C0085098380A80257E8C2F0A2F0E433F879BA
:1054AC0000740C1226B2E048F0A3E049F08E828F13
:1054BC0083A3A3A3A3A3A3A3A3A3A3E0F8A3E0F9AB
:1054CC00E84960238E828F83A3A3A3A3A3A3A3A3E2
:1054DC00A3A3E0F8A3E0C82410F582C83400F58338
:1054EC00780812251E800C7508FF7509FF750AFFD8
:1054FC00750BFF8E828F83A3A3A3A3A3A3A3A3A344
:10550C00A3E0F8A3E0F9E84960178E828F83A3A388
:10551C00A3A3A3A3A3A3A3A3E0F50CA3E0F50D8081
:10552C0006750C00750D008E828F83A3A3A3A3A315
:10553C00A3A3A3E0F8A3E0F9E84960178E828F8358
:10554C00A3A3A3A3A3A3A3A3E0F8A3E0F9880E89C4
:10555C000F8006750E00750F0078081228E5780C80
:10556C001228E9780E1228E9EE240CF582E43FF5B6
:10557C00831229008E828F83A3A3A3A3A3A3E0FC91
:10558C00A3E0FD740A1226C41219B3740A12267C05
:10559C00E9F5088E828F83A3A3A3E0FAA3E0FB12A4
:1055AC001A379007DFE0F8A3E0F9E8496043900769
:1055BC00DFE0F8A3E0F5838882A3A3E0F8A3E0F989
:1055CC00E849602D8E828F83A3E0FC79018E828F57
:1055DC0083A3A3A3E0FAA3E0FB9007DFE0F8A3E02A
:1055EC00F5838882A3A3E0F8A3E0F58388821226D2
:1055FC00D40257E88E088F09850882850983A3A3F6
:10560C00A3E0FAA3E0FB121A379007DFE0F8A3E05F
:10561C00F9E84960459007DFE0F8A3E0F58388825C
:10562C00A3A3E0F8A3E0F9E849602F8E828F83A34F
:10563C00E0FC7902850882850983A3A3A3E0FAA381
:10564C00E0FB9007DFE0F8A3E0F5838882A3A3E0FA
:10565C00F8A3E0F58388821226D40257E87C007DFB
:10566C0000EE2404FAE43FFB8E828F83A3A3A3E015
:10567C00F912197DE9F8E8C3940A5015EE240AFCD6
:10568C00E43FFD7A0475F006E8A42425F9121B63A7
:10569C00E90257E89007DAE06018900B4DE0F98EBC
:1056AC00828F83A3A3A3E0FAA3E0FB120C27E902E9
:1056BC0057E8900B4AE0701579058E828F83A3A36F
:1056CC00A3E0FAA3E0FB120C27E90257E88E828FC5
:1056DC0083A3A3A3E0FAA3E0FB1211438A0A8B0B6A
:1056EC00850A08850B098E828F83A3A3A3A3A3A38A
:1056FC00A3E0A2E0506FE508450960678508828544
:10570C000983A3A3A3A3E0605C8E828F83A3A3A3CE
:10571C00A3A3A3A3A3A3E0F8A3E0F9E8C4540FF850
:10572C007900E85401F8E95400F9E8A2E040367435
:10573C000E1226CCE5082405FAE43509FB8508820F
:10574C00850983A3A3A3A3E0F912197DE970167947
:10575C00038E828F83A3A3A3E0FAA3E0FB120C2792
:10576C00E980798077EE2405FCE43FFD850882858D
:10577C000983A3A3A3A3E0F98E828F83A3A3A3E041
:10578C00FAA3E0FB121A1F9007DFE0F8A3E0F9E898
:10579C004960499007DFE0F8A3E0F5838882A3A372
:1057AC00E0F8A3E0F9E84960337C0079008E828F41
:1057BC0083A3A3A3E0FAA3E0FB9007DFE0F8A3E048
:1057CC00F5838882A3A3E0F8A3E0F58388821226F0
:1057DC00D48009120CEDE970031219D77414122637
:1057EC007C7F080227A874F21226D674F212266661
:1057FC008908EAFEEBFF8C09AC18AD197A0E75F02E
:10580C0006E508A42420F9121B69E970647C06796A
:10581C00FFAA18AB19121857E97056740C1226B25D
:10582C00E0F8A3E0F9E8F50AE5096005EE420A8024
:10583C0004EEF4520A850A0C750D00740C1226B293
:10584C00E0650C7004A3E0650D6022E50AF87900B0
:10585C00740C1226B2E8F0A3E9F0AC18AD197A0E6C
:10586C0075F006E508A42420F9121B63E979018080
:10587C00027900740E12267C7F060227A874F2129D
:10588C0026D674E612266689098A0C8B0DECFEED81
:10589C00FF740C1226CC7A0E75F006E509A42420B0
:1058AC00F9121B69E960030259AC7C0679FF740C90
:1058BC001226C4121857E960030259ACAC18AD1982
:1058CC007A0C74702509F9121B69E960030259A856
:1058DC00750800AA18AB191219ADE50C450D702D01
:1058EC007C0C7900AA18AB19121857E960030259FD
:1058FC008E7C0C7D007900AA18AB191217F18A0A5C
:10590C008B0B850A82850B837508018075AC18ADED
:10591C0019AA0CAB0D1219A78A0A8B0BA80AA90B92
:10592C00E849702EEE4F601BAC18AD197A007B0065
:10593C001219A78A0A8B0BAA0AAB0BEAF8EBF9EA45
:10594C004B70047900805B88828983E50CF0A3E5B9
:10595C000DF088828983A3A3E0FA7B00EE6A7002C3
:10596C00EF6B601EEEC0E088828983A3A3D0E0F0C9
:10597C00EE4F700B888289837400F0A37400F0756D
:10598C000801E5086016AA18AB191219ADAC18ADD0
:10599C00197A0C74702509F9121B63E979018002DC
:1059AC007900741A12267C7F060227A874F7122637
:1059BC00D67F0080010FEFC39404504BEFF87900B1
:1059CC00E875F003A4C8AEF075F000A42EFE75F0D7
:1059DC0003E9A42EF9EC28F582ED39F583E06A7021
:1059EC0003A3E06B70CFEFF87900E875F003A4C85F
:1059FC00AAF075F000A42AFA75F003E9A42AF9ECD0
:105A0C0028FAED39FB80047A007B007F010227A87D
:105A1C0074F71226D67F00025AC2EFF87900E875A7
:105A2C00F003A4C8ACF075F000A42CFC75F003E9ED
:105A3C00A42CF9EA28F582EB39F583E0F4FCA3E019
:105A4C00F4FDEFF87900E875F003A4C8AEF075F03A
:105A5C0000A42EFE75F003E9A42EF9EA28F582EBDA
:105A6C0039F583ECF0A3EDF0EFF87900E875F0036D
:105A7C00A4C8ACF075F000A42CFC75F003E9A42CC0
:105A8C00F9EA28F582EB39F583A3A3E0F4C0E0EF43
:105A9C00F87900E875F003A4C8ACF075F000A42CFC
:105AAC00FC75F003E9A42CF9EA28F582EB39F583AF
:105ABC00A3A3D0E0F00FEFC394045003025A267F47
:105ACC00010227A874F21226D674F4122666EAFE96
:105ADC00EBFF8C0A8D0BEE4F7005790A025C1DEE04
:105AEC00FAEFFB1219CBE9F508E508C3940A400656
:105AFC001219DDE9F508E508C3940A4003025C1BA2
:105B0C00EEFCEFFD7A0E75F006E508A42420F912E0
:105B1C001B63E9F8E50A450B6013AC0AAD0B7A1B65
:105B2C0075F006E508A42421F9121B63E9741A1216
:105B3C0026B2E0FCA3E0FDEC4D600F7A1B75F0067D
